S016000041746D65676133325F534C6176652E7372656320
S11300000C942A000C9447000C9447000C9447006D
S11300100C9447000C9447000C9447000C94470040
S11300200C9447000C9447000C9431010C940A0181
S11300300C9447000C943B010C9447000C9462010F
S11300400C9447000C9447000C9447000C94470010
S11300500C94470011241FBECFE5D8E0DEBFCDBF0E
S113006010E0A0E6B0E0E6E1F3E002C005900D92F6
S1130070A036B107D9F720E0A0E6B0E001C01D9298
S1130080A636B207E1F70E9449000C9489010C944A
S11300900000CF93DF931F92CDB7DEB741E06FEF3F
S11300A083E00E9469000E94D6000E94FA00982F03
S11300B0977F903621F4CE0101960E94E4008F7E52
S11300C0803899F741E0698182E390E00E94BF00A3
S11300D0ECCF4130E1F4813059F028F0823069F0FE
S11300E0833081F046C08AB3682B6ABB81E00895EF
S11300F087B3682B67BB81E0089584B3682B64BB26
S113010081E0089581B3682B61BB81E008954111BA
S113011032C0813081F028F08230B9F08330F9F0B8
S11301202CC08AB3962F909589238ABB8BB3682BF6
S11301306BBB81E0089587B3962F9095892387BB85
S113014088B3682B68BB81E0089584B3962F90959B
S1130150892384BB85B3682B65BB81E0089581B393
S1130160962F9095892381BB82B3682B62BB81E073
S1130170089580E0089580E0089580E00895009750
S113018089F0411107C0FC012081609562236083DE
S113019081E00895413041F4FC012081622B6083A9
S11301A081E0089580E0089580E008958AE082B9AE
S11301B086B7806886BF86B7806486BF86B784604A
S11301C086BF80E280B90895FC0196B7906896BF17
S11301D096B7946096BF96B7906496BF06B607FE2E
S11301E0FDCF91B1892F887F987E903811F493B117
S11301F09083089506B607FEFDCF91B1892F887FBD
S1130200907F903631F0883A21F0803B11F090379E
S113021089F708951F920F920FB60F9211242F930E
S11302203F934F935F936F937F938F939F93AF937A
S1130230BF93EF93FF93E0916000F0916100099503
S1130240FF91EF91BF91AF919F918F917F916F91AA
S11302505F914F913F912F910F900FBE0F901F9080
S113026018951F920F920FB60F9211240F900FBE84
S11302700F901F9018951F920F920FB60F92112492
S11302802F933F934F935F936F937F938F939F939A
S1130290AF93BF93EF93FF93E0916200F0916300FB
S11302A00995FF91EF91BF91AF919F918F917F91AC
S11302B06F915F914F913F912F910F900FBE0F90CF
S11302C01F9018951F920F920FB60F9211242F931F
S11302D03F934F935F936F937F938F939F93AF93CA
S11302E0BF93EF93FF93E0916400F091650009954B
S11302F0FF91EF91BF91AF919F918F917F916F91FA
S11303005F914F913F912F910F900FBE0F901F90CF
S10903101895F894FFCFDC
S9030000FC
