:100000000C942A000C9447000C9447000C94470071
:100010000C9447000C9447000C9447000C94470044
:100020000C9447000C9447000C94C5010C949E015D
:100030000C9447000C9447000C9447000C94470024
:100040000C9447000C9447000C9447000C94470014
:100050000C94470011241FBECFE5D8E0DEBFCDBF12
:1000600010E0A0E6B0E0E2EAF3E002C005900D92F5
:10007000A437B107D9F720E0A4E7B0E001C01D9292
:10008000A637B207E1F70E94DF000C94CF010C9471
:1000900000009BB39F70282F207F922B9BBBD99889
:1000A000DB9A3AE13A95F1F700C0DB98EFE8F1E02E
:1000B0003197F1F700C000002BB32F70F0E18F9F54
:1000C000C0011124822B8BBBDB9A3AE13A95F1F700
:1000D00000C0DB988FE19EE40197F1F700C00000BB
:1000E00008958FEF8ABBDA982FEF81EE94E02150CC
:1000F00080409040E1F700C0000083E00E9449008A
:100100008FE19EE40197F1F700C0000083E00E94B8
:1001100049008FE19EE40197F1F700C0000083E001
:100120000E9449008FE19EE40197F1F700C00000B2
:1001300082E00E94490088E20E9449008CE00E940F
:10014000490086E00E94490081E00E94490008952C
:100150009BB39F70282F207F922B9BBBD99ADB9A51
:1001600032E03A95F1F700C0DB98EFE8F1E0319723
:10017000F1F700C000002BB32F70F0E18F9FC0019A
:100180001124822B8BBBDB9A32E03A95F1F700C049
:10019000DB988FE99FE00197F1F700C00000089518
:1001A000CF93DF93EC018881882331F021960E9460
:1001B000A80089918111FBCFDF91CF9108950E9412
:1001C000710041E060EF81E00E94F40040E064E0F3
:1001D00081E00E94F40080E690E00E944A0186E6F9
:1001E00090E00E94D000FFCF4130E1F4813059F01F
:1001F00028F0823069F0833081F046C08AB3682BE2
:100200006ABB81E0089587B3682B67BB81E00895DE
:1002100084B3682B64BB81E0089581B3682B61BB14
:1002200081E00895411132C0813081F028F08230A0
:10023000B9F08330F9F02CC08AB3962F90958923BA
:100240008ABB8BB3682B6BBB81E0089587B3962F75
:100250009095892387BB88B3682B68BB81E008959C
:1002600084B3962F9095892384BB85B3682B65BB97
:1002700081E0089581B3962F9095892381BB82B345
:10028000682B62BB81E0089580E0089580E00895C6
:1002900080E00895FC01892B09F44CC080818823FB
:1002A00019F0813029F148C08581813039F48FB748
:1002B00080688FBF89B7826089BF03C089B78D7F8F
:1002C00089BF8481813049F48FB780688FBF89B737
:1002D000816089BF81E089BF03C089B78E7F89BFF4
:1002E00092818181892B9381892B83BF80E108953D
:1002F0008581813039F48FB780688FBF89B7806876
:1003000089BF03C089B78F7789BF8481813039F471
:100310008FB780688FBF89B7806489BF03C089B7F2
:100320008F7B89BF92818181892B9381892B85BDA8
:1003300080E1089581E1089581E108951F920F926F
:100340000FB60F9211242F933F934F935F936F93A8
:100350007F938F939F93AF93BF93EF93FF93E0911E
:100360007400F09175000995FF91EF91BF91AF91E5
:100370009F918F917F916F915F914F913F912F91BD
:100380000F900FBE0F901F9018951F920F920FB6EF
:100390000F9211240F900FBE0F901F901895F89494
:0203A000FFCF8D
:1003A20000000300000048656C6C6F205370726996
:0403B2006E747300F2
:00000001FF
