:100000000C942A000C94FA020C9421030C944803DB
:100010000C9447000C9447000C9447000C94470044
:100020000C9447000C9447000C9447000C94BF03B9
:100030000C9447000C94AF040C9447000C94B50446
:100040000C94F0000C9447000C9447000C9447006B
:100050000C94470011241FBECFE5D8E0DEBFCDBF12
:1000600011E0A0E6B0E0EEE8FCE002C005900D92E1
:10007000AC32B107D9F721E0ACE2B1E001C01D928A
:10008000A835B207E1F70E9449000C9445060C948C
:1000900000000E94CF040E94A505FDCF0E942D0202
:1000A0000895EF92FF920F931F93CF93DF93E22F68
:1000B000F0E0E60FF11DE034F105A4F5811532E022
:1000C000930790F54115510589F1D22F8A01C62F6A
:1000D0007C010E94310280E50E944602C70196958C
:1000E0008795969587950E947E028E2D8295880F22
:1000F000880F807C8C2B0E947E02C0E00DC0F8012E
:10010000EC0FF11D8081882321F00E947E02CF5FD9
:1001100003C00E947E0202C0CD1788F30E949F0296
:1001200087E905C086E903C086E901C086E9DF9159
:10013000CF911F910F91FF90EF900895EF92FF9252
:100140000F931F93CF93DF93E0E4F0E0E61BF109F8
:10015000A22FB0E0EA17FB07BCF1811532E093074C
:10016000A8F541155105A1F1D22F8A01C62F7C01B6
:100170000E94310280E50E944602C701969587954C
:10018000969587950E947E028E2D8295880F880F06
:10019000807C8C2B0E947E020E943C0280E50E94A3
:1001A0005E02C0E009C00E948902F801EC0FF11D57
:1001B0008083882319F0CF5FCD17A8F30E949402A3
:1001C0000E949F0287E905C086E903C086E901C055
:1001D00086E9DF91CF911F910F91FF90EF900895E5
:1001E0001F920F920FB60F9211242F933F934F93AC
:1001F0005F936F937F938F939F93AF93BF93EF938F
:10020000FF93E0912C01F0912D01309709F00995B1
:10021000FF91EF91BF91AF919F918F917F916F91DE
:100220005F914F913F912F910F900FBE0F901F90B4
:100230001895813031F138F0823009F440C08330B4
:1002400009F45AC076C041110DC081E090E002C0AF
:10025000880F991F6A95E2F780959AB389238ABB24
:1002600084E00895413009F066C081E090E002C06A
:10027000880F991F6A95E2F79AB3892B8ABB84E0AD
:10028000089541110DC081E090E002C0880F991FD0
:100290006A95E2F7809597B3892387BB84E0089538
:1002A000413009F04AC081E090E002C0880F991FF8
:1002B0006A95E2F797B3892B87BB84E008954111D3
:1002C0000DC081E090E002C0880F991F6A95E2F7A7
:1002D000809594B3892384BB84E00895413079F5F7
:1002E00081E090E002C0880F991F6A95E2F794B30D
:1002F000892B84BB84E0089541110DC081E090E01A
:1003000002C0880F991F6A95E2F7809591B38923FF
:1003100081BB84E008954130A1F481E090E002C007
:10032000880F991F6A95E2F791B3892B81BB84E00E
:10033000089585E0089584E0089584E0089584E0B8
:10034000089584E00895813031F138F0823009F465
:1003500040C0833009F45AC076C041110DC081E01D
:1003600090E002C0880F991F6A95E2F780959BB3D1
:1003700089238BBB84E00895413009F066C081E099
:1003800090E002C0880F991F6A95E2F79BB3892B12
:100390008BBB84E0089541110DC081E090E002C064
:1003A000880F991F6A95E2F7809598B3892388BBD7
:1003B00084E00895413009F04AC081E090E002C035
:1003C000880F991F6A95E2F798B3892B88BB84E060
:1003D000089541110DC081E090E002C0880F991F7F
:1003E0006A95E2F7809595B3892385BB84E00895EB
:1003F000413079F581E090E002C0880F991F6A953D
:10040000E2F795B3892B85BB84E0089541110DC0B7
:1004100081E090E002C0880F991F6A95E2F780950D
:1004200092B3892382BB84E008954130A1F481E036
:1004300090E002C0880F991F6A95E2F792B3892B6A
:1004400082BB84E0089585E0089584E0089584E007
:10045000089584E0089584E0089586E480B911B891
:10046000089516BE84EA86BF06B607FEFDCF81B1A9
:10047000887F8830E1F7089584EA86BF06B607FED4
:10048000FDCF81B1887F8031E1F70895CF93C82FE8
:10049000CC0FC3B984E886BF06B607FEFDCF08C0FF
:1004A0000E943C02C3B984E886BF06B607FEFDCFB2
:1004B00081B1887F8831A1F7CF910895CF93C82F5C
:1004C000CC0FC3B983B1816083B986B7846886BF16
:1004D00006B607FEFDCF0CC00E943C02C3B983B133
:1004E000816083B986B7846886BF06B607FEFDCFF4
:1004F00081B1887F803481F7CF91089583B984E8F2
:1005000086BF06B607FEFDCF81B1887F8832E1F74E
:10051000089584EC86BF06B607FEFDCF81B1887FC3
:100520008035E1F783B1089584E886BF06B607FEFB
:10053000FDCF81B1887F8835E1F783B1089584E9E3
:1005400086BF86B78031E9F308954115510509F456
:100550004DC081111AC050933301409332018BB7C3
:1005600080648BBF623029F485B7836085BF80E0EB
:100570000895613029F485B7826085BF80E00895D1
:1005800085B7816085BF80E008958130D1F45093B4
:100590003101409330018BB780688BBF623029F402
:1005A00085B78C6085BF80E00895613029F485B7F8
:1005B000886085BF80E0089585B7846085BF80E04E
:1005C00008958230A9F450932F0140932E018BB7E8
:1005D00080628BBF623029F484B7806484BF80E07E
:1005E000089584B78F7B84BF80E0089581E00895EB
:1005F00081E008951F920F920FB60F9211242F934E
:100600003F934F935F936F937F938F939F93AF939A
:10061000BF93EF93FF93E0913201F091330109957D
:10062000FF91EF91BF91AF919F918F917F916F91CA
:100630005F914F913F912F910F900FBE0F901F90A0
:1006400018951F920F920FB60F9211242F933F937C
:100650004F935F936F937F938F939F93AF93BF93CA
:10066000EF93FF93E0913001F09131010995FF91F3
:10067000EF91BF91AF919F918F917F916F915F911A
:100680004F913F912F910F900FBE0F901F90189593
:100690001F920F920FB60F9211242F933F934F93F7
:1006A0005F936F937F938F939F93AF93BF93EF93DA
:1006B000FF93E0912E01F0912F010995FF91EF91A9
:1006C000BF91AF919F918F917F916F915F914F916A
:1006D0003F912F910F900FBE0F901F90189541E002
:1006E00067E081E00E94190141E065E081E00E943D
:1006F000190141E064E081E00E94190141E064E0F9
:1007000081E00E94A3018DB180658DB98DB18360B8
:100710008DB98DB1877F8DB98DB18B7F8DB98DB13D
:100720008F778DB98DB18F7D8DB90895CF93C82FF7
:1007300040E064E081E00E94A301CFB9779BFECF47
:1007400041E064E081E00E94A3018FB1CF91089560
:100750000F931F93CF938C01C0E0F801EC0FF11DB4
:1007600080810E949603CF5FF801EC0FF11D319755
:1007700080818111F2CFCF911F910F9108951F9227
:100780000F920FB60F9211248F939F93AF93BF9345
:100790008091340190913501A0913601B0913701DB
:1007A0000196A11DB11D8093340190933501A09352
:1007B0003601B0933701BF91AF919F918F910F9008
:1007C0000FBE0F901F901895FC01808181110AC007
:1007D0009181911107C083E390E090933901809358
:1007E000380114C081110AC09181913039F487E633
:1007F00090E0909339018093380108C0803431F43F
:100800008FE991E09093390180933801809138010C
:1008100089B98091390180BD8281813021F48AB10A
:1008200088608AB905C0811103C08AB1877F8AB9FF
:100830008381813021F48AB180618AB906C08281C6
:10084000811103C08AB18F7E8AB98481863021F4F8
:1008500080B5866880BD05C0843019F480B5866097
:1008600080BD8185803821F48AB180688AB905C04D
:10087000811103C08AB18F778AB98085803421F4D1
:100880008AB180648AB90895811103C08AB18F7BCF
:100890008AB908955D9BFECF8CB908955F9BFECF0A
:1008A0008CB10895DF92EF92FF920F931F93CF9335
:1008B000DF938C01D62EE42E0E944E04F801808333
:1008C000FF24F3940AC042175307C1F0E801C80F90
:1008D000D91F0E944E048883F3948F2D90E0FC0171
:1008E0003197E00FF11F60816E1541F0AC012D2DA5
:1008F00030E021503109421753072CF36D3011F4C9
:10090000108204C0F801E80FF91F1082DF91CF9127
:100910001F910F91FF90EF90DF900895CF92DF929B
:10092000EF92FF92CF93DF93EC01C12CD12C760193
:1009300007C00E944A048FEFC81AD80AE80AF80ACA
:10094000FE01EC0DFD1D80818111F3CF0E944A0450
:10095000DF91CF91FF90EF90DF90CF900895E091DD
:100960003A01F0913B0109950895E0913C01F09125
:100970003D010995089510925601089581E08093F4
:100980005601089582E080935601089583E0809394
:100990005601089580E690E00E94E40308958FB721
:1009A00080688FBF4BEB54E062E080E00E94A502BC
:1009B0004BEB54E062E081E00E94A50241E060E080
:1009C00081E00E9419010E946F030E94CA040E94E4
:1009D0004E000895009711F00E948E0408954DE096
:1009E0000E94520408950F931F93CF93DF93EC015D
:1009F0008B018BE690E00E94EA0461E1CE010E9447
:100A0000EF0480E0FE01E80FF11D908190539A30D1
:100A100010F48F5F0DC089E790E00E94EA048BE636
:100A200090E00E94EA0461E1CE010E94EF0480E0C0
:100A3000FE01E80FF11D908191110FC0893068F41B
:100A400089E790E00E94EA048BE690E00E94EA04C5
:100A500061E1CE010E94EF0480E0FE01E80FF11D8C
:100A600090819111CFCFF8018083DF91CF911F91B9
:100A70000F910895CF93DF93EC018AE890E00E94F4
:100A8000EA0465E0CE010E94EF0480E0FE01E80F79
:100A9000F11D908190539A3010F48F5F0DC088E95A
:100AA00090E00E94EA048AE890E00E94EA0465E08F
:100AB000CE010E94EF0480E0FE01E80FF11D90815D
:100AC00091110FC0843068F488E990E00E94EA0434
:100AD0008AE890E00E94EA0465E0CE010E94EF04FB
:100AE00080E0FE01E80FF11D90819111CFCFDF91E1
:100AF000CF910895CF93DF9389EA90E00E94EA04B2
:100B000087EB90E00E94EA048DEC90E00E94EA04FA
:100B1000D0E0C1E014C08CED90E00E94EA040E9495
:100B20004E04813339F0823341F085EE90E00E942B
:100B3000EA0405C0D0E0C0E002C0D1E0C0E0C111CD
:100B4000EACF8D2FDF91CF910895809157018823AF
:100B500019F0813021F1089587EF90E00E94EA04B6
:100B600064E471E085E491E00E94F3042091440183
:100B700045E451E060E080E090E00E9451008FE3A6
:100B800091E00E943A0525E04FE351E064E180E006
:100B900090E00E94510081E0809357010895809178
:100BA0003E01811126C084EF90E00E94EA0485E1B5
:100BB00091E00E94EA042091440145E451E060E0A4
:100BC00080E090E00E949E004EEB54E062E080E006
:100BD0000E94A50284EF90E00E94EA0485E491E07F
:100BE0000E94EA0484EF90E00E94EA0481E080938E
:100BF0003E01809156018230C1F0833089F181300D
:100C000009F042C085E491E00E94A80342EC54E060
:100C100062E080E00E94A50246EC54E062E081E0E0
:100C20000E94A50210925601089525E04FE351E07D
:100C300064E180E090E00E949E008FE391E00E94DA
:100C4000A8034BEB54E062E080E00E94A50246EC72
:100C500054E062E081E00E94A502109256010895DE
:100C60000E947A05809357014BEB54E062E080E0EC
:100C70000E94A5024BEB54E062E081E00E94A502D5
:0E0C800010923E01109256010895F894FFCF95
:100C8E0000000101060000000000000D0A456E7410
:100C9E0065722050414E3A20000D0A57726F6E67F2
:100CAE002050414E2121210D0A000D0A456E74651A
:100CBE00722050494E3A20000D0A57726F6E67200F
:100CCE0050494E2121210D0A0043686F6F73652034
:100CDE006D6F64650D0A00312D2050726F67726161
:100CEE006D6D696E67206D6F64650D0A00322D2083
:100CFE0055736572206D6F64650D0A0043686F69E8
:100D0E0063653A200057524F4E472043484F4943A0
:100D1E00452121210D0A000D0A50726F6772616D17
:100D2E006D696E67206D6F646520616363657373B3
:100D3E0065640D0A000D0A55736572206D6F64654A
:0C0D4E002061636365737365640D0A0027
:00000001FF
