:100000000C942A000C9447000C9447000C94470071
:100010000C9447000C9447000C9447000C94470044
:100020000C9447000C9447000C9437010C94100179
:100030000C9447000C9441010C9447000C94680107
:100040000C9447000C9447000C9447000C94470014
:100050000C94470011241FBECFE5D8E0DEBFCDBF12
:1000600010E0A0E6B0E0E2E2F3E002C005900D92FD
:10007000A036B107D9F720E0A0E6B0E001C01D929C
:10008000A636B207E1F70E9449000C948F010C9448
:1000900000000E94D50041E060EF81E00E9468000E
:1000A0008AE00E94FA0081110CC08FE00E94EF00EC
:1000B0000E94E50041E060EF88E390E00E94BE000E
:1000C000EFCF40E060EF88E390E00E94BE00E8CF11
:1000D0004130E1F4813059F028F0823069F083300A
:1000E00081F046C08AB3682B6ABB81E0089587B36C
:1000F000682B67BB81E0089584B3682B64BB81E003
:10010000089581B3682B61BB81E00895411132C02D
:10011000813081F028F08230B9F08330F9F02CC0C2
:100120008AB3962F909589238ABB8BB3682B6BBBC0
:1001300081E0089587B3962F9095892387BB88B374
:10014000682B68BB81E0089584B3962F909589232E
:1001500084BB85B3682B65BB81E0089581B3962F7E
:100160009095892381BB82B3682B62BB81E008959F
:1001700080E0089580E0089580E00895009789F078
:10018000411107C0FC01208160956223608381E0FA
:100190000895413041F4FC012081622B608381E0AD
:1001A000089580E0089580E0089580E280B9089580
:1001B00086B7806886BF86B7806286BF86B7846050
:1001C00086BF06B607FEFDCF089586B7806886BF56
:1001D00086B7806186BF86B7846086BF089583B97D
:1001E00086B7806886BF86B7846086BF06B607FE7E
:1001F000FDCF0895CF93C82F0E94D80081B1887F8A
:10020000883049F48C2F0E94EF0081B1887F8831BB
:1002100021F480E003C081E001C080E2CF91089525
:100220001F920F920FB60F9211242F933F934F936B
:100230005F936F937F938F939F93AF93BF93EF934E
:10024000FF93E0916000F09161000995FF91EF91BB
:10025000BF91AF919F918F917F916F915F914F91DE
:100260003F912F910F900FBE0F901F9018951F92E6
:100270000F920FB60F9211240F900FBE0F901F9088
:1002800018951F920F920FB60F9211242F933F9340
:100290004F935F936F937F938F939F93AF93BF938E
:1002A000EF93FF93E0916200F09163000995FF9155
:1002B000EF91BF91AF919F918F917F916F915F91DE
:1002C0004F913F912F910F900FBE0F901F90189557
:1002D0001F920F920FB60F9211242F933F934F93BB
:1002E0005F936F937F938F939F93AF93BF93EF939E
:1002F000FF93E0916400F09165000995FF91EF9103
:10030000BF91AF919F918F917F916F915F914F912D
:100310003F912F910F900FBE0F901F901895F8945A
:02032000FFCF0D
:00000001FF
