S0180000537072696E74735F41746D65676133322E7372656306
S11300000C942A000C9447000C9447000C9447006D
S11300100C9447000C9447000C9447000C94470040
S11300200C9447000C9447000C94A4010C947D019B
S11300300C9447000C946B020C9447000C949402AB
S11300400C9447000C9447000C9447000C94470010
S11300500C94470011241FBECFE5D8E0DEBFCDBF0E
S113006011E0A0E6B0E0E8E9F5E002C005900D92E9
S1130070AA32B107D9F721E0AAE2B1E001C01D928A
S1130080A233B207E1F70E9407010C94CA020C9450
S1130090000041E060EF81E00E94100185ED90E0F6
S11300A00E94AE0181E790E00E9459028DE00E9417
S11300B00C020895CF93DF93EC016DE00E943002AF
S11300C060916F0070917000CE010E94C102892B73
S11300D021F481E08093600025C060916D007091EF
S11300E06E00CE010E94C102892B21F482E080932C
S11300F0600018C060916B0070916C00CE010E948A
S1130100C102892B19F4109260000CC0609169003F
S113011070916A00CE010E94C102892B19F483E018
S113012080936000DF91CF910895809160008230C8
S113013039F128F48823F1F1813041F008958330B6
S113014009F452C0843009F45DC0089541E060E2CE
S113015088E390E00E94660140E060EC88E390E070
S11301600E94660160E080916700909168000E949F
S113017014028DE00E940C0284E0809360000895D4
S113018041E060E488E390E00E94660140E060EAB8
S113019088E390E00E94660160E0809165009091A0
S11301A066000E9414028DE00E940C0284E0809399
S11301B06000089541E060E888E390E00E946601F1
S11301C040E060E688E390E00E94660160E0809190
S11301D06300909164000E9414028DE00E940C025E
S11301E084E080936000089560E0809161009091C4
S11301F062000E9414028DE00E940C0284E080934D
S11302006000089581E790E00E945A0008950E94DA
S1130210490081E790E00E945A000E949500F9CFBE
S11302204130E1F4813059F028F0823069F08330B4
S113023081F046C08AB3682B6ABB81E0089587B316
S1130240682B67BB81E0089584B3682B64BB81E0AD
S1130250089581B3682B61BB81E00895411132C0D8
S1130260813081F028F08230B9F08330F9F02CC06D
S11302708AB3962F909589238ABB8BB3682B6BBB6B
S113028081E0089587B3962F9095892387BB88B31F
S1130290682B68BB81E0089584B3962F90958923D9
S11302A084BB85B3682B65BB81E0089581B3962F29
S11302B09095892381BB82B3682B62BB81E008954A
S11302C080E0089580E0089580E00895009789F023
S11302D0411107C0FC01208160956223608381E0A5
S11302E00895413041F4FC012081622B608381E058
S11302F0089580E0089580E008951F920F920FB64C
S11303000F9211242F933F934F935F936F937F9397
S11303108F939F93AF93BF93EF93FF93E0912A0141
S1130320F0912B010995FF91EF91BF91AF919F91AE
S11303308F917F916F915F914F913F912F910F908A
S11303400FBE0F901F9018951F920F920FB60F9229
S113035011240F900FBE0F901F901895FC018081FF
S1130360811113C08181811107C083E390E09093D0
S11303702D0180932C0111C0813079F487E690E03F
S113038090932D0180932C0108C0803431F48FE9BF
S113039091E090932D0180932C0180912C0189B9D7
S11303A080912D0180BD8281813011F4539A03C064
S11303B081112DC053988381813011F4549A04C063
S11303C08281811101C054988481863021F480B5E2
S11303D0866880BD05C0843019F480B5866080BD10
S11303E08185803829F4579A8FB780688FBF03C0FE
S11303F0811101C057988085803429F4569A8FB7AB
S113040080688FBF0895811106C05698089583812E
S11304108130D1F6D3CF08955D9BFECF8CB908957A
S11304205F9BFECF8CB108950F931F93CF93DF93FF
S11304308C01D62FFC018081681751F0C0E00E9426
S11304400C02CF5FF801EC0FF11D80818D13F7CF03
S11304508D2F0E940C02DF91CF911F910F9108956F
S1130460EF92FF920F931F93CF93DF930097C9F0FE
S1130470D62F7C010E941002F70180838D1761F052
S1130480C0E0CF5F87010C0F111D0E941002F8011C
S11304908083D813F6CF01C08701F801108280E071
S11304A001C081E0DF91CF911F910F91FF90EF90F8
S11304B00895CF93DF93EC018881882331F021964E
S11304C00E940C0289918111FBCF80E00E940C02F2
S11304D0DF91CF9108951F920F920FB60F921124BE
S11304E02F933F934F935F936F937F938F939F9338
S11304F0AF93BF93EF93FF93E0912E01F0912F01FF
S1130500309709F00995FF91EF91BF91AF919F91B9
S11305108F917F916F915F914F913F912F910F90A8
S11305200FBE0F901F9018951F920F920FB60F9247
S113053011242F933F934F935F936F937F938F93E4
S11305409F93AF93BF93EF93FF9380912E0190916C
S11305502F01892B29F0E0913001F09131010995A7
S1130560FF91EF91BF91AF919F918F917F916F9187
S11305705F914F913F912F910F900FBE0F901F905D
S11305801895FB01DC018D91019080190110D9F3BC
S10B0590990B0895F894FFCFC4
S113059804E000E300F300050117011A011F012418
S11305A80148492E2E537072696E7473000000005E
S11305B8000000000000000000000000000000002F
S11305C8000000000000000000000000000000001F
S11305D8000000000000000000000000000000000F
S11305E800000000000000000000000000000000FF
S11305F800000000000000000000000000000000EF
S113060800000000000000010106000000000000D6
S11306184F4B006C656420726564206F6E206E6FAA
S11306287720004C45442079656C6C6F77206F6E99
S1130638206E6F77006C656420677265656E206F45
S11306486E206E6F77200041540053544F5000576A
S10D06584149540053544152540028
S9030000FC
