S00B000041544D2E7372656337
S11300000C946B000C9488000C9488000C94880069
S11300100C9488000C9488000C9488000C9488003C
S11300200C9488000C9488000C9488000C94AF09FC
S11300300C9488000C94440B0C9488000C944A0B88
S11300400C9493070C9488000C9488000C948800FA
S11300500C94880008000000BE922449123EABAA0A
S1130060AA2ABECDCCCC4C3E00000080BEABAAAACE
S1130070AA3E00000000BF000000803F0000000016
S113008000084178D3BB4387D1133D190E3CC3BD4F
S11300904282AD2B3E68EC8276BED98FE1A93E4CFC
S11300A080EFFFBE01C4FF7F3F0000000000076334
S11300B04236B79BD8A71A39685618AEBAAB558CD6
S11300C01D3CB7CC5763BD6DEDFD753EF61772311F
S11300D0BF000000803F11241FBECFE5D8E0DEBF83
S11300E0CDBF13E0A0E6B0E0E6E0F6E202C0059082
S11300F00D92A831B107D9F723E0A8E1B3E001C01C
S11301001D92A832B207E1F70E948A000C940113F1
S11301100C940000CF93DF93CDB7DEB7CF55D10950
S11301200FB6F894DEBF0FBECDBF1A8219820E94AB
S1130130550B80E090E00E94E00D27E04BE650E094
S113014069E18EEF91E00E941A03EE24E39410E03B
S113015000E0A12CFF24F394DD24D394CC24C39495
S113016002C011E0C12CCC2041F1CE01835A9F4F33
S11301700E94F80D4C01492D417062E083E00E9419
S1130180460891FA442740F963E083E00E94460858
S113019092FA442740F964E083E00E94460893FA07
S11301A0442740F965E083E00E9446088928B9F5B0
S11301B082E790E00E946E0B32C081E0A8122FC04B
S11301C081EA90E00E946E0B88EC90E00E946E0B36
S11301D011E0A12C24C088EE90E00E946E0B6AE02E
S11301E0CE0189960E94730B63EF70E0CE0189966D
S11301F00E94F812892B69F069EF70E0CE018996AC
S11302000E94F812892B49F08EEF90E00E946E0B49
S113021006C0EE24E39410E002C0E12C10E01111BA
S1130220DACFEE2029F081E0E81609F42EC19BCF45
S113023081E0F81202C00E94F30B0E943B04813358
S113024069F0823381F0833399F481E00E94B6042B
S1130250AA24A394FF24F394D12C85CFFF24F394F0
S1130260DD24D39406C0FF24F394DD24D39401C089
S1130270F12C813309F002C181E00E94B60482E1CD
S113028091E00E9495050E943B048332E1F781E0EE
S11302900E94B6048DE191E00E94950541E067E07B
S11302A083E00E94460861E1CE0103960E948D0915
S11302B040E067E083E00E944608BE016F5F7F4F25
S11302C0CE0103960E940B0EB82E85EE90E00E949C
S11302D06E0BCE0103960E946E0B85EE90E00E9499
S11302E06E0BBB2009F49FC041E067E083E00E94ED
S11302F0460865E0CE0144960E948D0940E067E01F
S113030083E00E94460881E00E94B6048AE291E0FC
S11303100E9495050E945A06CE0144960E94090C3B
S1130320882309F459C0CE0149960E945D0C81309E
S113033061F549815A81BE01605E7F4FCE014996C5
S11303400E94500DB82E81E00E94B60441E066E0A0
S113035083E00E94460884E391E00E94950580EDC5
S113036097E00E940F0A40E066E083E00E9446089E
S113037081E0B81287C049815A81BE01675E7F4F10
S1130380CE0180960E94BC0E7DC081E00E94B6041E
S113039082E491E00E9495050E945A0682E591E06C
S11303A00E94950580ED97E00E940F0A81E00E946B
S11303B0B60441E066E083E00E94460884E391E0ED
S11303C00E94950580ED97E00E940F0A40E066E0E8
S11303D083E00E94460856C081E00E94B6048DE581
S11303E091E00E9495050E945A0689E691E00E94D8
S11303F0950580ED97E00E940F0A41E066E083E0F6
S11304000E94460881E00E94B60484E391E00E94C1
S1130410950580ED97E00E940F0A40E066E083E0D6
S11304200E9446082FC081E00E94B60483E791E051
S11304300E9495050E945A068CE791E00E9495055A
S113044080ED97E00E940F0A8AE090E00E940F0A74
S113045041E066E083E00E94460881E00E94B60421
S113046084E391E00E94950580ED97E00E940F0AD5
S113047040E066E083E00E94460804C0823311F441
S11304800E94000DD110D4CE6ECE0E94770BB82EF0
S1130490CC24C394B2C085EE90E00E946E0B87E832
S11304A091E00E946E0B80EA91E00E946E0B8AEB51
S11304B091E00E946E0B88EE90E00E946E0B0E9409
S11304C0E30A813309F059C085EE90E00E946E0B77
S11304D087EC91E00E946E0B49E061E1CE01C39686
S11304E00E94AA0B182F811104C085ED91E00E948F
S11304F06E0B112349F3CE01835A9F4F0E94F80DCE
S113050021E1AE014D5C5F4F60E00E941A0386EE6C
S113051091E00E946E0B42E069E0CE01835B9F4F45
S11305200E94AA0B182FCE01835B9F4F0E94CD0B14
S1130530082F111104C088EF91E00E946E0B112363
S113054031F3402FBE01635B7F4FCE018C5B9F4F25
S11305500E94D80BCE01835A9F4F0E94F80D8C0144
S113056029E0AE014C5B5F4F64E10E941A03C801AD
S113057001960E94E00D01E040C0823331F585EE22
S113058090E00E946E0B8DE092E00E946E0B47E0BB
S113059067E0CE018A5A9F4F0E94AA0B182F81113F
S11305A008C088EF91E00E946E0B8DE092E00E94FB
S11305B06E0B112361F327E0AE014A5A5F4F69E1E4
S11305C08EEF91E00E941A0318C0833311F40111D5
S11305D00EC0833339F4011105C083E292E00E9416
S11305E06E0B0BC08EEF90E00E946E0B06C0B12C18
S11305F0C12CAA24A394FF24F394CC2009F4B1CDF4
S1130600B11049CF11E0C12CAECD41E063E081E0EF
S11306100E94BC07089541E063E081E00E9446081F
S1130620089540E063E081E00E94460808950E9436
S1130630FE080895EF92FF920F931F93CF93DF93D9
S1130640E22FF0E0E60FF11DE034F105A4F5811589
S113065032E0930790F54115510589F1D22F8A01B3
S1130660C62F7C010E94020980E50E941709C70178
S113067096958795969587950E944F098E2D82951C
S1130680880F880F807C8C2B0E944F09C0E00DC01E
S1130690F801EC0FF11D8081882321F00E944F099D
S11306A0CF5F03C00E944F0902C0CD1788F30E9498
S11306B0700987E905C086E903C086E901C086E9B7
S11306C0DF91CF911F910F91FF90EF900895EF92DA
S11306D0FF920F931F93CF93DF93E0E4F0E0E61BC8
S11306E0F109A22FB0E0EA17FB07BCF1811532E053
S11306F09307A8F541155105A1F1D22F8A01C62F00
S11307007C010E94020980E50E941709C7019695A1
S11307108795969587950E944F098E2D8295880F0F
S1130720880F807C8C2B0E944F090E940D0980E564
S11307300E942F09C0E009C00E945A09F801EC0F79
S1130740F11D8083882319F0CF5FCD17A8F30E9491
S113075065090E94700987E905C086E903C086E936
S113076001C086E9DF91CF911F910F91FF90EF9027
S113077008950F931F93282F30E0A8EEB3E00E9452
S1130780DE128B019C01000F111F221F331F000F6B
S1130790111F221F331F000F111F221F331F80E060
S11307A090E0DC0103C00196A11DB11DB901A801AF
S11307B0689412F876956795579547951694D1F7EE
S11307C084179507A607B70770F3C901B8011F91ED
S11307D00F91089540E062E082E00E94BC0740E08F
S11307E063E082E00E94BC0740E064E082E00E9493
S11307F0BC0740E062E081E00E94BC0741E065E0A4
S113080082E00E94BC0741E066E082E00E94BC07EF
S113081041E067E082E00E94BC0741E063E081E0E0
S11308200E94BC0741E065E082E00E94460841E086
S113083066E082E00E94460841E067E082E00E94B0
S1130840460841E063E081E00E94460841E062E03E
S113085082E00E94460841E063E082E00E9446088C
S113086041E064E082E00E94460841E062E081E009
S11308700E9446080895CF93DF93D5E070C0D83026
S113088039F440E063E081E00E944608C2E056C0CB
S113089040E06D2F82E00E944608F8CFC53030F565
S11308A06C2F82E00E94D008811147C088E20E9428
S11308B0B9036C2F82E00E94D0088823D1F341E071
S11308C06D2F82E00E9446088C2F90E002972D2F16
S11308D030E025503109880F991F880F991F825BDA
S11308E09D4FFC01E20FF31F80813DC062E081E077
S11308F00E94D008811121C084E10E94B90305C07F
S113090041E063E081E00E94460862E081E00E94E9
S1130910D0088823A9F38C2F90E002972D2F30E084
S113092025503109880F991F880F991F825B9D4FAD
S1130930FC01E20FF31F808116C0CF5FC63008F4BC
S1130940ADCFD83031F441E063E081E00E94460845
S113095005C041E06D2F82E00E944608DF5FD93078
S113096008F48DCF84E1DF91CF910895CF93C82F00
S11309708BB38F709C2F907F892B8BBB40E061E001
S113098080E00E94460841E063E080E00E9446085F
S11309908AE090E00E940F0A40E063E080E00E9459
S11309A046088AE090E00E940F0A2BB330E1C39F0F
S11309B0C0011124922F9F70892B8BBB41E063E00F
S11309C080E00E9446088AE090E00E940F0A40E01E
S11309D063E080E00E9446088AE090E00E940F0AEB
S11309E0CF91089584E690E00E940F0A41E061E00F
S11309F080E00E94BC0741E062E080E00E94BC0706
S1130A0041E063E080E00E94BC0741E064E080E0F4
S1130A100E94BC0741E065E080E00E94BC0741E021
S1130A2066E080E00E94BC0741E067E080E00E944D
S1130A30BC0783E00E94B6048AE090E00E940F0A9B
S1130A4083E00E94B6048AE090E00E940F0A83E0EB
S1130A500E94B6048AE090E00E940F0A82E00E949D
S1130A60B6048AE090E00E940F0A88E20E94B6046D
S1130A708AE090E00E940F0A88E00E94B6048AE0AF
S1130A8090E00E940F0A81E00E94B6048AE090E0A0
S1130A900E940F0A86E00E94B6048AE090E00E9459
S1130AA00F0A8CE00E94B6048AE090E00E940F0ACC
S1130AB00895CF93C82F8BB38F709C2F907F892B71
S1130AC08BBB41E061E080E00E94460841E063E0C6
S1130AD080E00E9446088AE090E00E940F0A40E00D
S1130AE063E080E00E9446088AE090E00E940F0ADA
S1130AF02BB330E1C39FC0011124922F9F70892B27
S1130B008BBB41E063E080E00E9446088AE090E00D
S1130B100E940F0A40E063E080E00E9446088AE0F9
S1130B2090E00E940F0ACF9108950F931F93CF93E3
S1130B308C01C0E003C00E945905CF5FF801EC0F9F
S1130B40F11D80818111F7CFCF911F910F910895ED
S1130B50CF92DF92EF92FF92CF93DF93CDB7DEB7C0
S1130B6028970FB6F894DEBF0FBECDBF0E94341095
S1130B706B017C010E94C2100E9405106A838A8165
S1130B808F5F8C836A8170E080E090E00E94341073
S1130B909B01AC0160E070E080E291E40E94871167
S1130BA09B01AC01C701B6010E94930F0E9405107E
S1130BB069836A8170E080E090E00E9434109B01B8
S1130BC0AC0160E070E080E291E40E9487119B0137
S1130BD0AC01C701B6010E94930F6D837E838F839E
S1130BE09887898180638B838B810E9459058C81CE
S1130BF081508C83CD80DE80EF80F884698170E041
S1130C0080E090E00E9436109B01AC01C701B60160
S1130C100E94260F6D837E838F8398876D817E81EA
S1130C208F81988520E030E040E251E40E941A115F
S1130C300E94051069836D817E818F81988520E0F3
S1130C4030E040E251E40E941A116D837E838F8369
S1130C5098878C818111C5CF28960FB6F894DEBF92
S1130C600FBECDBFDF91CF91FF90EF90DF90CF907B
S1130C7008951F93CF93DF93D82F162FC0E014C08D
S1130C80D03141F480E10E94B60485E090E00E94F6
S1130C900F0A09C0D43139F484E10E94B60485E016
S1130CA090E00E940F0ACF5FC11750F3DF91CF91FC
S1130CB01F91089580EC0E94B604089540E060E01E
S1130CC080E00E94BC0740E060E080E00E944608AB
S1130CD00E943D070E946E0708950F931F93CF93C0
S1130CE0DF9300D01F92CDB7DEB719821B821A8220
S1130CF0009709F456C08C01CE0101960E94750735
S1130D0089818130A1F4CE0102960E9480072A8154
S1130D103B81A4ECB9E00E94DE1220E137E240E01E
S1130D2050E00E94BC1220931B038DE301C08CE3AE
S1130D3090911A03911104C090911B0390931A038C
S1130D4090911903911104C090911A03909319037F
S1130D5090911803911104C0909119039093180372
S1130D605091190340911A03242F30E0250F311DAF
S1130D7090911803290F311D90911B03290F311DE8
S1130D80332314F42D5F3F4F3595279535952795DB
S1130D90F8012083509318034093190390931A0386
S1130DA001C08EE30F900F900F90DF91CF911F91B0
S1130DB00F910895843119F08531D9F034C0673129
S1130DC061F440E062E083E00E94460841E063E0B1
S1130DD083E00E94460881E0089541E062E083E0F8
S1130DE00E94460840E063E083E00E94460881E0F8
S1130DF00895673161F440E066E083E00E944608AC
S1130E0041E067E083E00E94460881E0089541E004
S1130E1066E083E00E94460840E067E083E00E94C9
S1130E20460881E0089580E00895843119F0853101
S1130E3051F00DC00E94DA0641E064E083E00E94B4
S1130E40460881E008950E94DA0681E0089580E072
S1130E500895843119F0853151F00DC00E94DA06ED
S1130E6040E064E083E00E94460881E008950E9427
S1130E70DA0681E0089580E0089587B1806887B933
S1130E8087B1806487B987B18F7E87B987B1877F3F
S1130E9087B987B18B7F87B987B18D7F87B987B1D0
S1130EA08E7F87B986B1806886B986B1877F86B917
S1130EB086B1806286B980B78F7780BF80B78F7B19
S1130EC080BF80B78F7D80BF86B1846086B986B1CC
S1130ED0826086B986B1816086B9089586B18068DA
S1130EE086B986B1806486B90895FC01892B31F0F6
S1130EF096B19295917090838EE208958DE2089553
S1130F00009779F024B130E0FC013183208345B1AE
S1130F1050E0542F4427242B352B318320838EE239
S1130F2008958DE208951F920F920FB60F92112427
S1130F302F933F934F935F936F937F938F939F93DD
S1130F40AF93BF93EF93FF93E0911C03F0911D03C4
S1130F50309709F00995FF91EF91BF91AF919F915F
S1130F608F917F916F915F914F913F912F910F904E
S1130F700FBE0F901F901895813031F138F08230F8
S1130F8009F440C0833009F45AC076C041110DC041
S1130F9081E090E002C0880F991F6A95E2F780957E
S1130FA09AB389238ABB84E00895413009F066C06E
S1130FB081E090E002C0880F991F6A95E2F79AB326
S1130FC0892B8ABB84E0089541110DC081E090E033
S1130FD002C0880F991F6A95E2F7809597B3892319
S1130FE087BB84E00895413009F04AC081E090E075
S1130FF002C0880F991F6A95E2F797B3892B87BBC4
S113100084E0089541110DC081E090E002C0880F92
S1131010991F6A95E2F7809594B3892384BB84E091
S11310200895413079F581E090E002C0880F991F5E
S11310306A95E2F794B3892B84BB84E00895411147
S11310400DC081E090E002C0880F991F6A95E2F715
S1131050809591B3892381BB84E008954130A1F444
S113106081E090E002C0880F991F6A95E2F791B37E
S1131070892B81BB84E0089585E0089584E0089578
S113108084E0089584E0089584E00895813031F186
S113109038F0823009F440C0833009F45AC076C075
S11310A041110DC081E090E002C0880F991F6A953C
S11310B0E2F780959BB389238BBB84E0089541308C
S11310C009F066C081E090E002C0880F991F6A951C
S11310D0E2F79BB3892B8BBB84E0089541110DC0CB
S11310E081E090E002C0880F991F6A95E2F780952D
S11310F098B3892388BB84E00895413009F04AC03D
S113110081E090E002C0880F991F6A95E2F798B3D6
S1131110892B88BB84E0089541110DC081E090E0E3
S113112002C0880F991F6A95E2F7809595B38923C9
S113113085BB84E00895413079F581E090E002C0F8
S1131140880F991F6A95E2F795B3892B85BB84E0D4
S1131150089541110DC081E090E002C0880F991FED
S11311606A95E2F7809592B3892382BB84E008955F
S11311704130A1F481E090E002C0880F991F6A9584
S1131180E2F792B3892B82BB84E0089585E0089549
S113119084E0089584E0089584E0089584E0089547
S11311A0813079F028F08230A9F08330E1F024C056
S11311B089B390E002C0959587956A95E2F78170AE
S11311C0089586B390E002C0959587956A95E2F7F5
S11311D08170089583B390E002C0959587956A95D0
S11311E0E2F78170089580B390E002C095958795E9
S11311F06A95E2F78170089585E0089586E480B9E0
S113120011B8089516BE84EA86BF06B607FEFDCF60
S113121081B1887F8830E1F7089584EA86BF06B6F5
S113122007FEFDCF81B1887F8031E1F70895CF9328
S1131230C82FCC0FC3B984E886BF06B607FEFDCF1E
S113124008C00E940D09C3B984E886BF06B607FE2C
S1131250FDCF81B1887F8831A1F7CF910895CF93D5
S1131260C82FCC0FC3B983B1816083B986B78468B2
S113127086BF06B607FEFDCF0CC00E940D09C3B998
S113128083B1816083B986B7846886BF06B607FEDA
S1131290FDCF81B1887F803481F7CF91089583B9E0
S11312A084E886BF06B607FEFDCF81B1887F883209
S11312B0E1F7089584EC86BF06B607FEFDCF81B141
S11312C0887F8035E1F783B1089584E886BF06B648
S11312D007FEFDCF81B1887F8835E1F783B108959A
S11312E084E986BF86B78031E9F3089541E066E07A
S11312F081E00E94BC078DB180648DB98DB18F7778
S11313008DB98FB78F778FBF8DB18F7D8DB90895CC
S11313108FB9779BFECF8FB10895EF92FF920F9311
S11313201F93CF93DF938C01D62FC0E07801EC0E8E
S1131330F11C80E00E948809F7018083CF5FF801E7
S1131340EC0FF11D31978081882311F0CD1770F3D4
S1131350DF91CF911F910F91FF90EF9008951F920D
S11313600F920FB60F9211248F939F93AF93BF9355
S113137080911E0390911F03A0912003B09121033B
S11313800196A11DB11D80931E0390931F03A0938A
S11313902003B0932103BF91AF919F918F910F9040
S11313A00FBE0F901F90189589B7816089BF8FB7C2
S11313B080688FBF08958130910521F483B78160DF
S11313C083BF08958830910521F483B7826083BF79
S11313D008958032910521F483B7836083BF089513
S11313E08034910521F483B7846083BF08958038E5
S11313F0910521F483B7856083BF0895811521E0A9
S1131400920721F483B7866083BF089581159440C1
S113141019F483B7876083BF089513BE0895CF92EC
S1131420DF92EF92FF92CF93DF9300D000D000D0F1
S1131430CDB7DEB7BC0180E090E00E9434102FE607
S113144032E143E85AE30E94930F6B017C0120E0F0
S113145030E04FE753E40E94930F0E940510698324
S11314607A838B839C8329813A814B815C81AFEFA2
S1131470B0E00E94ED120E9434109B01AC01C70140
S1131480B6010E94260F0E9405107E836D830E9480
S1131490D40988E090E00E94DB0940911E0350913A
S11314A01F03609120037091210389819A81AB818C
S11314B0BC81481759076A077B0778F38D819E81A1
S11314C0809582BF0E940D0A10921E0310921F0382
S11314D0109220031092210326960FB6F894DEBFD3
S11314E00FBECDBFDF91CF91FF90EF90DF90CF90F3
S11314F00895FC01808181110AC09181911107C076
S113150083E390E0909323038093220314C081111A
S11315100AC09181913039F487E690E090932303D7
S11315208093220308C0803431F48FE991E09093D2
S11315302303809322038091220389B9809123039A
S113154080BD8281813021F48AB188608AB905C066
S1131550811103C08AB1877F8AB98381813021F4E4
S11315608AB180618AB906C08281811103C08AB1BF
S11315708F7E8AB98481863021F480B5866880BDE7
S113158005C0843019F480B5866080BD81858038BB
S113159021F48AB180688AB905C0811103C08AB177
S11315A08F778AB98085803421F48AB180648AB9BE
S11315B00895811103C08AB18F7B8AB908955D9B18
S11315C0FECF8CB908955F9BFECF8CB10895DF9256
S11315D0EF92FF920F931F93CF93DF938C01D62E3C
S11315E0E42E0E94E30AF8018083FF24F3940AC0E6
S11315F042175307C1F0E801C80FD91F0E94E30A3C
S11316008883F3948F2D90E0FC013197E00FF11F54
S113161060816E1541F0AC012D2D30E0215031096F
S1131620421753072CF36D3011F4108204C0F801F3
S1131630E80FF91F1082DF91CF911F910F91FF9056
S1131640EF90DF900895CF92DF92EF92FF92CF93C5
S1131650DF93EC01C12CD12C760107C00E94DF0A74
S11316608FEFC81AD80AE80AF80AFE01EC0DFD1D2E
S113167080818111F3CF0E94DF0ADF91CF91FF9027
S1131680EF90DF90CF900895E0912403F09125032B
S113169009950895E0912603F0912703099508958B
S11316A080E690E00E94790A089541E067E083E0D3
S11316B00E94BC0741E066E083E00E94BC070E94F0
S11316C017030E945E060E94EA030E94F2040E942D
S11316D0500B0E9405030E9476090895009711F0AB
S11316E00E94230B08954DE00E94E70A08950F938A
S11316F01F93CF93DF9300D000D01F92CDB7DEB7F6
S113170010E000E018C01F5F8EE592E00E946E0BAF
S113171065E0CE0101960E94730B61E772E0CE0191
S113172001960E94F812892B29F086E792E00E9424
S11317306E0B01C001E0011102C0133020F3802FB1
S11317400F900F900F900F900F90DF91CF911F91FA
S11317500F9108951F93CF93DF93EC01142F0E94F0
S1131760730B80E0FE01E80FF11D908190539A30D5
S113177068F48F5FFE01E80FF11D9081911102C0A2
S1131780811730F09111EECF81E003C080E001C0F9
S113179080E0DF91CF911F9108959C0180E001C00A
S11317A08F5FF901E80FF11D90819111F9CF089530
S11317B0DC0138E0341B20E090E012C0931730F4D1
S11317C080E3FD01E90FF11D808309C0FB01E20FF5
S11317D0F11D8081FD01E90FF11D80832F5F9F5F63
S11317E0993060F3089581E00E94B60489E892E09C
S11317F00E9495050E945A0687E992E00E94950589
S113180062E084E10E9439068EE992E00E94950527
S11318100895CF92DF92EF92FF920F931F93CF938D
S1131820DF936C0100E0F12CEE24E39431C00E94BC
S11318303B04182F843161F180ED810F8A3040F42C
S11318408AE20E94590588811813E12CF39401C09F
S1131850E12CE1101DC084E0F8121AC081E00E945E
S1131860B60485EA92E00E94950588EE93E00E9412
S11318700F0A81E00E94B6040F5F033020F48AE26D
S113188091E00E9495050E945A06F12CEE24E394FF
S1131890E601CF0DD11D8881882311F0033038F281
S11318A0033009F4E12C8E2DDF91CF911F910F911C
S11318B0FF90EF90DF90CF900895CF92DF92FF9248
S11318C00F931F93CF93DF93CDB7DEB727970FB650
S11318D0F894DEBF0FBECDBF6C0181E00E94B60458
S11318E080EB92E00E9495050E945A0680EC92E0FB
S11318F00E94950567E080E10E943906F12C00E022
S11319003CC00E943B04182F8431B9F180ED810F53
S11319108A3078F4F601E00FF11D1083043021F4CD
S113192061E084E10E943906812F0E9459050F5F0E
S113193024C081E00E94B60488EC92E00E949505E0
S11319400E945A0686ED92E00E94950588EE93E087
S11319500E940F0A81E00E94B60480EB92E00E948C
S113196095050E945A0680EC92E00E94950567E076
S113197080E10E943906F39400E082E08F1518F0AC
S1131980063008F4BECFF601E00FF11D108282E0AC
S11319908F1508F127E0AE014F5F5F4F69E18EEFCD
S11319A091E00E94670380E00CC0E1E0F0E0EC0FFE
S11319B0FD1FE80FF11D2081921778F0291778F0A8
S11319C08F5F863070F4F601E80FF11D908191115C
S11319D0ECCF81E007C080E005C081E003C080E077
S11319E001C081E027960FB6F894DEBF0FBECDBFCD
S11319F0DF91CF911F910F91FF90DF90CF900895C9
S1131A001F93CF93DF931F92CDB7DEB781E00E947F
S1131A10B6048DED92E00E9495050E945A0684EE6C
S1131A2092E00E9495050E943B04182F19C00E9461
S1131A303B04182FCE0101960E946D06698170E067
S1131A4080E090E00E94A80562E080E10E943906EF
S1131A508981843218F00E940B0302C00E94110392
S1131A60113329F70F90DF91CF911F91089581E0F1
S1131A700E94B6048FEE92E00E9495050E945A06D9
S1131A8067E184E10E94150788EE93E00E940F0A43
S1131A9067E184E10E94290781E00E94B604089569
S1131AA0EF92FF920F931F93CF93DF938C01EB017F
S1131AB0CA0129E0AB0164E10E94670380E003C02E
S1131AC0913338F48F5FFE01E80FF11D908191117D
S1131AD0F7CF911106C0C0E06BC0213348F49F5F7B
S1131AE001C090E0F801E90FF11D20812111F5CF2B
S1131AF049E050E0481B510925E030E0291B310939
S1131B0042175307C9F51CC0321748F12317B0F424
S1131B1081E00E94B60480E093E00E9495050E9453
S1131B205A068BE093E00E94950588EE93E00E94AC
S1131B300F0A81E00E94B604C0E014C09F5F8F5F6B
S1131B407E01E80EF11CF7012081222351F0F801F7
S1131B50E90FF11D30813111D7CFC0E003C0C1E0DE
S1131B6001C0C0E0F7018081811101C0C1E0C13032
S1131B70F9F40E94370D1CC02417350724F40E9481
S1131B80370DC1E015C081E00E94B60480E093E007
S1131B900E9495050E945A068BE093E00E949505E9
S1131BA088EE93E00E940F0A81E00E94B604C0E030
S1131BB08C2FDF91CF911F910F91FF90EF9008959B
S1131BC0CF93DF9300D01F92CDB7DEB789839A837A
S1131BD01B8223E0AE014F5F5F4F63E28EEF91E023
S1131BE00E941A030F900F900F90DF91CF910895E8
S1131BF0CF93DF93EC0123E0AC0163E28EEF91E03D
S1131C000E9467032881898190E0982F8827822B7E
S1131C10DF91CF910895AF92BF92CF92DF92EF926E
S1131C20FF920F931F93CF93DF93CDB7DEB76497E3
S1131C300FB6F894DEBF0FBECDBF6C015B01CE01C1
S1131C4042960E94F80D7C0100E010E022C021E1E0
S1131C50AE014F5F5F4F60E0C8010E94670385EEED
S1131C6090E00E946E0BCE0101960E946E0B85EEF1
S1131C7090E00E946E0BB601CE0101960E94F8120C
S1131C80892B29F4F5011183008381E006C00F5FDD
S1131C901F4F0E151F05D8F280E064960FB6F89416
S1131CA0DEBF0FBECDBFDF91CF911F910F91FF908B
S1131CB0EF90DF90CF90BF90AF9008954F925F92D6
S1131CC06F927F928F929F92AF92BF92DF92EF9228
S1131CD0FF920F931F93CF93DF937C01D62E0FEFC8
S1131CE0060F812C912C540110E02CC0D0E0E09719
S1131CF0602F70E080E090E00E9434109B01AC0102
S1131D0060E070E080E291E40E9487112B013C01C5
S1131D10BE01DD0F880B990B0E943610A3019201BE
S1131D200E941A112B013C01C501B4010E94341018
S1131D30A30192010E94270F0E9405104B015C0130
S1131D4001501F5F1D1530F4F701E10FF11DC08133
S1131D50C111CCCFC501B401DF91CF911F910F9177
S1131D60FF90EF90DF90BF90AF909F908F907F9007
S1131D706F905F904F9008958F929F92AF92BF9211
S1131D80EF92FF920F931F93CF93DF93CDB7DEB7FC
S1131D9029970FB6F894DEBF0FBECDBF8C01CB01DF
S1131DA07A0164E00E945E0E4B015C0168E0C801A8
S1131DB00E945E0E19869B01AC01281939094A0953
S1131DC05B0918E021153105B1F0CA01B9012AE017
S1131DD030E040E050E00E94BC12E12FF0E0319787
S1131DE081E090E08C0F9D1FE80FF91F80E3860FC0
S1131DF0808311500CC0E12FF0E0319781E090E036
S1131E008C0F9D1FE80FF91F80E38083115011117F
S1131E10D9CF29E0AE014F5F5F4F64E1C7010E9453
S1131E201A03CE0101960E946E0B29960FB6F89400
S1131E30DEBF0FBECDBFDF91CF911F910F91FF90F9
S1131E40EF90BF90AF909F908F9008955058BB270C
S1131E50AA270E943E0F0C9488100E947A1038F032
S1131E600E94811020F039F49F3F19F426F40C9459
S1131E7077100EF4E095E7FB0C947110E92F0E94A3
S1131E80991058F3BA17620773078407950720F06F
S1131E9079F4A6F50C94BB100EF4E0950B2EBA2F32
S1131EA0A02D0B01B90190010C01CA01A00111245C
S1131EB0FF27591B99F0593F50F4503E68F11A1608
S1131EC0F040A22F232F342F4427585FF3CF469599
S1131ED037952795A795F0405395C9F77EF41F16BB
S1131EE0BA0B620B730B840BBAF09150A1F0FF0F85
S1131EF0BB1F661F771F881FC2F70EC0BA0F621F71
S1131F00731F841F48F4879577956795B795F79560
S1131F109E3F08F0B0CF9395880F08F09927EE0FF5
S1131F209795879508950E94A70F0C9488100E9496
S1131F30811058F00E947A1040F029F45F3F29F094
S1131F400C94711051110C94BC100C9477100E94D5
S1131F50991068F39923B1F3552391F3951B550B0D
S1131F60BB27AA2762177307840738F09F5F5F4F68
S1131F70220F331F441FAA1FA9F335D00E2E3AF0A7
S1131F80E0E832D091505040E695001CCAF72BD0BF
S1131F90FE2F29D0660F771F881FBB1F2617370710
S1131FA04807AB07B0E809F0BB0B802DBF01FF2742
S1131FB093585F4F3AF09E3F510578F00C9471109E
S1131FC00C94BC105F3FE4F3983ED4F38695779568
S1131FD06795B795F7959F5FC9F7880F911D9695FB
S1131FE0879597F90895E1E0660F771F881FBB1F57
S1131FF0621773078407BA0720F0621B730B840B04
S1132000BA0BEE1F88F7E09508950E94A11088F09E
S11320109F5798F0B92F9927B751B0F0E1F0660FA8
S1132020771F881F991F1AF0BA95C9F714C0B130E9
S113203091F00E94BB10B1E008950C94BB10672F7F
S1132040782F8827B85F39F0B93FCCF38695779518
S11320506795B395D9F73EF4909580957095619501
S11320607F4F8F4F9F4F0895E89409C097FB3EF42C
S113207090958095709561957F4F8F4F9F4F9923D1
S1132080A9F0F92F96E9BB279395F695879577954F
S11320906795B795F111F8CFFAF4BB0F11F460FF0F
S11320A01BC06F5F7F4F8F4F9F4F16C0882311F067
S11320B096E911C0772321F09EE8872F762F05C07B
S11320C0662371F096E8862F70E060E02AF09A9516
S11320D0660F771F881FDAF7880F9695879597F90B
S11320E0089597F99F6780E870E060E008959FEF96
S11320F080EC089500240A9416161706180609069B
S1132100089500240A941216130614060506089569
S1132110092E0394000C11F4882352F0BB0F40F4F1
S1132120BF2B11F460FF04C06F5F7F4F8F4F9F4F31
S1132130089557FD9058440F551F59F05F3F71F0B3
S11321404795880F97FB991F61F09F3F79F087951A
S11321500895121613061406551FF2CF4695F1DFA3
S113216008C0161617061806991FF1CF8695710533
S1132170610508940895E894BB2766277727CB0167
S113218097F908950E94D21029ED3BE54EED5EE3E8
S11321900C941A1116F00C9411120C947710689484
S11321A00C9471100E94A110A8F39923C1F3AEF30B
S11321B0DF93CF931F930F93FF92C92FDD278823BB
S11321C02AF02197660F771F881FDAF720E030E0A6
S11321D040E85FEB9FE3883920F0803E38F0219699
S11321E08F770E94270FE4E5F0E004C00E94270FD8
S11321F0E1E8F0E00E941F128B01BE01EC01FB2E0E
S11322006F5771097595771F880B990B0E943610CB
S113221028E132E741E35FE30E942D11AF2D9801DD
S1132220AE01FF900F911F91CF91DF910E943E0F5D
S11322300C9488100E942D110C9488100E947A101E
S113224038F00E94811020F0952311F00C94711045
S11322500C94771011240C94BC100E94991070F304
S1132260959FC1F3950F50E0551F629FF001729F37
S1132270BB27F00DB11D639FAA27F00DB11DAA1F46
S1132280649F6627B00DA11D661F829F2227B00D93
S1132290A11D621F739FB00DA11D621F839FA00D1E
S11322A0611D221F749F3327A00D611D231F849F6E
S11322B0600D211D822F762F6A2F11249F575040C5
S11322C09AF0F1F088234AF0EE0FFF1FBB1F661F40
S11322D0771F881F91505040A9F79E3F510580F009
S11322E00C9471100C94BC105F3FE4F3983ED4F34B
S11322F0869577956795B795F795E7959F5FC1F7AD
S1132300FE2B880F911D9695879597F90895FA01EC
S1132310EE0FFF1F309621053105A1F161157105FE
S113232061F48038BFE39B0749F1689490388105D4
S113233061F08038BFEF9B0741F099234AF5FF3FD6
S1132340E1053105210519F1E8940894E795D901CF
S1132350AA2329F4AB2FBE2FF85FD0F310C0FF5F80
S113236070F4A695E0F7F73950F019F0FF3A38F415
S11323709F779F930DD00F9007FC9058089546F0D7
S11323800C94771060E070E080E89FE308954FE7D5
S11323909F775F934F933F932F930E94D2102F9177
S11323A03F914F915F910E941A110C94DF1129F40F
S11323B016F00C9471100C94BB100C9477100E94BE
S11323C0A110A8F39638A0F707F80F92E8942BE32E
S11323D03AEA48EB5FE70E9430110F920F920F9296
S11323E04DB75EB70F920E948812EEEAF0E00E94A9
S11323F01F124F915F91EF91FF91E595EE1FFF1F23
S113240049F0FE57E0684427EE0F441FFA95E1F7C0
S11324104195550B0E9452120F9007FE0C944612E0
S113242008959F3F31F0915020F4879577956795F3
S1132430B795880F911D9695879597F90895DF9321
S1132440CF931F930F93FF92EF92DF927B018C0146
S1132450689406C0DA2EEF010E942D11FE01E89463
S1132460A5912591359145915591A6F3EF010E94CF
S11324703E0FFE019701A801DA9469F7DF90EF900F
S1132480FF900F911F91CF91DF9108959B01AC01B3
S113249060E070E080E89FE30C94930F0C9471105B
S11324A00C9411120E94A110D8F39923C9F3940F2C
S11324B0511DA3F39150504094F059F0882332F009
S11324C0660F771F881F91505040C1F79E3F5105FA
S11324D02CF7880F911D9695879597F908955F3F7E
S11324E0ACF0983E9CF0BB27869577956795B79599
S11324F008F4B1609395C1F7BB0F58F711F460FF6E
S1132500E8CF6F5F7F4F8F4F9F4FE3CF0C94BC108A
S1132510FA01DC01AA0FBB1F9B01AC01BF5728F4D1
S1132520222733274427507820C0B75190F4AB2F8B
S11325300024469537952795011CA395D2F30020D6
S113254071F0220F331F441FB395DAF30ED00C94AD
S1132550260F61307105A0E88A07B94630F49B0163
S1132560AC016627772788279078309621F020835E
S11325703183428353830895A1E21A2EAA1BBB1B05
S1132580FD010DC0AA1FBB1FEE1FFF1FA217B3073B
S1132590E407F50720F0A21BB30BE40BF50B661F51
S11325A0771F881F991F1A9469F760957095809515
S11325B090959B01AC01BD01CF010895A29FB0018C
S11325C0B39FC001A39F700D811D1124911DB29F63
S11325D0700D811D1124911D08950E94DE12A59F86
S11325E0900DB49F900DA49F800D911D112408950A
S11325F0FB01DC018D91019080190110D9F3990B35
S10926000895F894FFCFD9
S113260600000101060000000000003530303030C3
S113261630000D0A53657276657220697320456D24
S11326267074792E20596F7520617265206E6F77EC
S113263620696E2061646D696E206D6F64650D0A94
S1132646000D0A312D20466F722070726F67726119
S11326566D6D696E67206D6F646520747970652091
S113266641444D494E0D0A000D0A322D20466F7223
S11326762075736572206D6F6465207479706520AA
S113268655534552200D0A000D0A43686F69636568
S11326963A200041444D494E0055534552000D0A17
S11326A657524F4E472043484F4943452121210D58
S11326B60A00456E74657220436172640050726F3D
S11326C663657373696E672E2E00456E746572209A
S11326D670696E00456E64206F66205472616E7375
S11326E62E0062616C616E636520656E7465726549
S11326F66400696E636F7272656374200050494E9C
S113270620456E7465726564004E4F542056414CE4
S113271649440063617264206E6F74007265636F6E
S1132726676E697A6564000D0A31202D20456E7442
S11327366572206E6577207265636F72640D0A0098
S11327460D0A32202D20456E746572206D61782045
S113275662616C616E63650D0A000D0A33202D20DB
S1132766457869740D0A000D0A456E746572205029
S1132776414E3A20000D0A57524F4E472050414EC3
S11327862121210D0A000D0A456E746572206261CD
S11327966C616E63653A20000D0A57524F4E47200E
S11327A642414C414E43452121210D0A000D0A4563
S11327B66E746572204D61782042616C616E63654A
S11327C63A20000D0A506C6561736520656E746568
S11327D672206174206C65617374206F6E6520725B
S11327E665636F726420746F206578697400313292
S11327F6334134353642373839432A3023440D0AB7
S1132806456E7465722050617373776F72643A20F3
S11328160031323334000D0A57524F4E472050418F
S11328265353574F52440D0A00312D496E73657246
S113283674204361726400322D54656D7000332D2B
S1132846457869740057726F6E672070696E200050
S113285677616E7465642042616C616E63653A00EB
S1132866585858582E585800456E74657220612081
S113287676616C6964006E756D62657200312D4512
S11328865849540054656D70206E6F773A20005095
S11328966C65617365207761697420636173680090
S11328A64E6F7420456E6F756768004163636F757C
S10B28B66E742042616C2E00D7
S9030000FC
