:100000000C946B000C9488000C9488000C9488006D
:100010000C9488000C9488000C9488000C94880040
:100020000C9488000C9488000C9488000C94FE04B6
:100030000C9488000C9488000C9488000C94880020
:100040000C9493030C9488000C9488000C94880002
:100050000C94880008000000BE922449123EABAA0E
:10006000AA2ABECDCCCC4C3E00000080BEABAAAAD2
:10007000AA3E00000000BF000000803F000000001A
:1000800000084178D3BB4387D1133D190E3CC3BD53
:100090004282AD2B3E68EC8276BED98FE1A93E4C00
:1000A00080EFFFBE01C4FF7F3F0000000000076338
:1000B0004236B79BD8A71A39685618AEBAAB558CDA
:1000C0001D3CB7CC5763BD6DEDFD753EF617723123
:1000D000BF000000803F11241FBECFE5D8E0DEBF87
:1000E000CDBF10E0A0E6B0E0E8E3F3E102C0059088
:1000F0000D92A637B107D9F720E0A6E7B0E001C01E
:100100001D92A038B207E1F70E9417030C949A09D8
:100110000C94000041E062E082E00E94BC0341E0F8
:1001200063E082E00E94BC0341E064E082E00E9460
:10013000BC0340E065E082E00E94BC0340E066E072
:1001400082E00E94BC0340E067E082E00E94BC03C2
:1001500041E065E082E00E94460441E066E082E022
:100160000E94460441E067E082E00E94460441E0CC
:1001700062E082E00E94460441E063E082E00E9487
:10018000460441E064E082E00E94460408950F9333
:100190001F93CF93DF9310E031C005E0010F40E0E3
:1001A000602F82E00E944604C0E020C0D2E0DC0F55
:1001B0006D2F82E00E94D004811117C082E390E08D
:1001C0000E945E056D2F82E00E94D004813069F4A8
:1001D0008C2F90E0FC01EE0FFF1FE80FF91FE05A93
:1001E000FF4FE10FF11D80810CC0CF5FC330F0F2F3
:1001F00041E0602F82E00E9446041F5F133068F2E6
:1002000085E1DF91CF911F910F910895CF93C82F72
:100210008BB38F709C2F907F892B8BBB40E061E06C
:1002200080E00E94460441E063E080E00E944604D2
:100230008AE090E00E945E0540E063E080E00E947A
:1002400046048AE090E00E945E052BB330E1C39F34
:10025000C0011124922F9F70892B8BBB41E063E07A
:1002600080E00E9446048AE090E00E945E0540E043
:1002700063E080E00E9446048AE090E00E945E0510
:10028000CF91089584E690E00E945E0541E061E030
:1002900080E00E94BC0341E062E080E00E94BC0379
:1002A00041E063E080E00E94BC0341E064E080E064
:1002B0000E94BC0341E065E080E00E94BC0341E095
:1002C00066E080E00E94BC0341E067E080E00E94BD
:1002D000BC0383E00E9406018AE090E00E945E0574
:1002E00083E00E9406018AE090E00E945E0583E0C0
:1002F0000E9406018AE090E00E945E0582E00E9472
:1003000006018AE090E00E945E0580E20E940601FC
:100310008AE090E00E945E0588E00E9406018AE083
:1003200090E00E945E0581E00E9406018AE090E074
:100330000E945E0586E00E9406018AE090E00E942D
:100340005E058CE00E9406018AE090E00E945E0556
:100350000895CF93C82F8BB38F709C2F907F892BDC
:100360008BBB41E061E080E00E94460441E063E035
:1003700080E00E9446048AE090E00E945E0540E032
:1003800063E080E00E9446048AE090E00E945E05FF
:100390002BB330E1C39FC0011124922F9F70892B92
:1003A0008BBB41E063E080E00E9446048AE090E07D
:1003B0000E945E0540E063E080E00E9446048AE01F
:1003C00090E00E945E05CF9108950F931F93CF9305
:1003D0008C01C0E003C00E94A901CF5FF801EC0FBF
:1003E000F11D80818111F7CFCF911F910F91089559
:1003F000CF92DF92EF92FF92CF93DF93CDB7DEB72C
:1004000028970FB6F894DEBF0FBECDBF0E94D60668
:100410006B017C010E9464070E94A7066A838A819F
:100420008F5F8C836A8170E080E090E00E94D60646
:100430009B01AC0160E070E080E291E40E94290839
:100440009B01AC01C701B6010E9435060E94A706B8
:1004500069836A8170E080E090E00E94D6069B018B
:10046000AC0160E070E080E291E40E9429089B0109
:10047000AC01C701B6010E9435066D837E838F8370
:100480009887898180638B838B810E94A9018C81ED
:1004900081508C83CD80DE80EF80F884698170E0AC
:1004A00080E090E00E94D8069B01AC01C701B60134
:1004B0000E94C8056D837E838F8398876D817E81BE
:1004C0008F81988520E030E040E251E40E94BC0733
:1004D0000E94A70669836D817E818F81988520E0C7
:1004E00030E040E251E40E94BC076D837E838F833D
:1004F00098878C818111C5CF28960FB6F894DEBFFE
:100500000FBECDBFDF91CF91FF90EF90DF90CF90E6
:100510000895803139F40E94060185E090E00E9440
:100520005E050895843131F40E94060185E090E073
:100530000E945E05089540E060E080E00E94BC03F8
:1005400040E060E080E00E9446040E943D030E947B
:100550006E0308950F931F93CF93DF9300D01F92E4
:10056000CDB7DEB719821B821A82009709F456C0F4
:100570008C01CE0101960E94750389818130A1F41E
:10058000CE0102960E9480032A813B81A4ECB9E04F
:100590000E94800920E137E240E050E00E945E09BD
:1005A000209379008DE301C08CE390917800911144
:1005B00004C0909179009093780090917700911108
:1005C00004C09091780090937700909176009111FB
:1005D00004C09091770090937600509177004091FD
:1005E0007800242F30E0250F311D90917600290FDF
:1005F000311D90917900290F311D332314F42D5FA3
:100600003F4F3595279535952795F80120835093D1
:100610007600409377009093780001C08EE30F90AE
:100620000F900F90DF91CF911F910F910895CF936D
:10063000DF931F92CDB7DEB70E949B020E9442015A
:1006400089E690E00E94E5010E948A001982CE01AD
:1006500001960E94AA0289E690E00E94E5010E94AC
:10066000C7008A30C0F7682F70E080E090E00E94F9
:10067000F80180E10E948902EECF87B1806887B9D6
:1006800087B1806487B987B18F7E87B987B1877F4B
:1006900087B987B18B7F87B987B18D7F87B987B1DC
:1006A0008E7F87B986B1806886B986B1877F86B923
:1006B00086B1806286B980B78F7780BF80B78F7B25
:1006C00080BF80B78F7D80BF86B1846086B986B1D8
:1006D000826086B986B1816086B9089586B18068E6
:1006E00086B986B1806486B90895FC01892B31F002
:1006F00096B19295917090838EE208958DE208955F
:10070000009779F024B130E0FC013183208345B1BA
:1007100050E0542F4427242B352B318320838EE245
:1007200008958DE208951F920F920FB60F92112433
:100730002F933F934F935F936F937F938F939F93E9
:10074000AF93BF93EF93FF93E0917A00F0917B001A
:10075000309709F00995FF91EF91BF91AF919F916B
:100760008F917F916F915F914F913F912F910F905A
:100770000FBE0F901F901895813031F138F0823004
:1007800009F440C0833009F45AC076C041110DC04D
:1007900081E090E002C0880F991F6A95E2F780958A
:1007A0009AB389238ABB84E00895413009F066C07A
:1007B00081E090E002C0880F991F6A95E2F79AB332
:1007C000892B8ABB84E0089541110DC081E090E03F
:1007D00002C0880F991F6A95E2F7809597B3892325
:1007E00087BB84E00895413009F04AC081E090E081
:1007F00002C0880F991F6A95E2F797B3892B87BBD0
:1008000084E0089541110DC081E090E002C0880F9E
:10081000991F6A95E2F7809594B3892384BB84E09D
:100820000895413079F581E090E002C0880F991F6A
:100830006A95E2F794B3892B84BB84E00895411153
:100840000DC081E090E002C0880F991F6A95E2F721
:10085000809591B3892381BB84E008954130A1F450
:1008600081E090E002C0880F991F6A95E2F791B38A
:10087000892B81BB84E0089585E0089584E0089584
:1008800084E0089584E0089584E00895813031F192
:1008900038F0823009F440C0833009F45AC076C081
:1008A00041110DC081E090E002C0880F991F6A9548
:1008B000E2F780959BB389238BBB84E00895413098
:1008C00009F066C081E090E002C0880F991F6A9528
:1008D000E2F79BB3892B8BBB84E0089541110DC0D7
:1008E00081E090E002C0880F991F6A95E2F7809539
:1008F00098B3892388BB84E00895413009F04AC049
:1009000081E090E002C0880F991F6A95E2F798B3E2
:10091000892B88BB84E0089541110DC081E090E0EF
:1009200002C0880F991F6A95E2F7809595B38923D5
:1009300085BB84E00895413079F581E090E002C004
:10094000880F991F6A95E2F795B3892B85BB84E0E0
:10095000089541110DC081E090E002C0880F991FF9
:100960006A95E2F7809592B3892382BB84E008956B
:100970004130A1F481E090E002C0880F991F6A9590
:10098000E2F792B3892B82BB84E0089585E0089555
:1009900084E0089584E0089584E0089584E0089553
:1009A000813079F028F08230A9F08330E1F024C062
:1009B00089B390E002C0959587956A95E2F78170BA
:1009C000089586B390E002C0959587956A95E2F701
:1009D0008170089583B390E002C0959587956A95DC
:1009E000E2F78170089580B390E002C095958795F5
:1009F0006A95E2F78170089585E008951F920F923D
:100A00000FB60F9211248F939F93AF93BF93809152
:100A10007C0090917D00A0917E00B0917F000196B6
:100A2000A11DB11D80937C0090937D00A0937E005A
:100A3000B0937F00BF91AF919F918F910F900FBEA8
:100A40000F901F90189589B7816089BF8FB7806814
:100A50008FBF08958130910521F483B7816083BFF2
:100A600008958830910521F483B7826083BF08958B
:100A70008032910521F483B7836083BF0895803469
:100A8000910521F483B7846083BF08958038910570
:100A900021F483B7856083BF0895811521E0920713
:100AA00021F483B7866083BF08958115944019F4BB
:100AB00083B7876083BF089513BE0895CF92DF92F6
:100AC000EF92FF92CF93DF9300D000D000D0CDB74C
:100AD000DEB7BC0180E090E00E94D6062FE632E14E
:100AE00043E85AE30E9435066B017C0120E030E0C8
:100AF0004FE753E40E9435060E94A70669837A8374
:100B00008B839C8329813A814B815C81AFEFB0E07C
:100B10000E948F090E94D6069B01AC01C701B60155
:100B20000E94C8050E94A7067E836D830E9423054C
:100B300088E090E00E942A0540917C0050917D0061
:100B400060917E0070917F0089819A81AB81BC8128
:100B5000481759076A077B0778F38D819E81809536
:100B600082BF0E945C0510927C0010927D00109262
:100B70007E0010927F0026960FB6F894DEBF0FBE5F
:100B8000CDBFDF91CF91FF90EF90DF90CF90089590
:100B90005058BB27AA270E94E0050C942A070E9400
:100BA0001C0738F00E94230720F039F49F3F19F406
:100BB00026F40C9419070EF4E095E7FB0C94130748
:100BC000E92F0E943B0758F3BA176207730784079F
:100BD000950720F079F4A6F50C945D070EF4E095E6
:100BE0000B2EBA2FA02D0B01B90190010C01CA01E7
:100BF000A0011124FF27591B99F0593F50F4503E92
:100C000068F11A16F040A22F232F342F4427585F83
:100C1000F3CF469537952795A795F0405395C9F79B
:100C20007EF41F16BA0B620B730B840BBAF0915053
:100C3000A1F0FF0FBB1F661F771F881FC2F70EC0F2
:100C4000BA0F621F731F841F48F4879577956795C5
:100C5000B795F7959E3F08F0B0CF9395880F08F0B1
:100C60009927EE0F9795879508950E9449060C9451
:100C70002A070E94230758F00E941C0740F029F41D
:100C80005F3F29F00C94130751110C945E070C94EC
:100C900019070E943B0768F39923B1F3552391F399
:100CA000951B550BBB27AA2762177307840738F0DB
:100CB0009F5F5F4F220F331F441FAA1FA9F335D038
:100CC0000E2E3AF0E0E832D091505040E695001CEC
:100CD000CAF72BD0FE2F29D0660F771F881FBB1FA6
:100CE000261737074807AB07B0E809F0BB0B802D84
:100CF000BF01FF2793585F4F3AF09E3F510578F0B0
:100D00000C9413070C945E075F3FE4F3983ED4F312
:100D1000869577956795B795F7959F5FC9F7880F83
:100D2000911D9695879597F90895E1E0660F771FD5
:100D3000881FBB1F621773078407BA0720F0621B66
:100D4000730B840BBA0BEE1F88F7E09508950E9491
:100D5000430788F09F5798F0B92F9927B751B0F003
:100D6000E1F0660F771F881F991F1AF0BA95C9F72F
:100D700014C0B13091F00E945D07B1E008950C9469
:100D80005D07672F782F8827B85F39F0B93FCCF31C
:100D9000869577956795B395D9F73EF490958095AC
:100DA000709561957F4F8F4F9F4F0895E89409C0CC
:100DB00097FB3EF490958095709561957F4F8F4F8E
:100DC0009F4F9923A9F0F92F96E9BB279395F695A4
:100DD000879577956795B795F111F8CFFAF4BB0F22
:100DE00011F460FF1BC06F5F7F4F8F4F9F4F16C086
:100DF000882311F096E911C0772321F09EE8872F10
:100E0000762F05C0662371F096E8862F70E060E0CB
:100E10002AF09A95660F771F881FDAF7880F969544
:100E2000879597F9089597F99F6780E870E060E0EB
:100E300008959FEF80EC089500240A941616170673
:100E400018060906089500240A94121613061406BB
:100E500005060895092E0394000C11F4882352F01E
:100E6000BB0F40F4BF2B11F460FF04C06F5F7F4FD6
:100E70008F4F9F4F089557FD9058440F551F59F0BD
:100E80005F3F71F04795880F97FB991F61F09F3F77
:100E900079F087950895121613061406551FF2CFA0
:100EA0004695F1DF08C0161617061806991FF1CFF0
:100EB00086957105610508940895E894BB27662717
:100EC0007727CB0197F908950E94740729ED3BE538
:100ED0004EED5EE30C94BC0716F00C94B3080C9432
:100EE000190768940C9413070E944307A8F39923E9
:100EF000C1F3AEF3DF93CF931F930F93FF92C92FEC
:100F0000DD2788232AF02197660F771F881FDAF7DD
:100F100020E030E040E85FEB9FE3883920F0803E3E
:100F200038F021968F770E94C905E4E5F0E004C00F
:100F30000E94C905E1E8F0E00E94C1088B01BE01F2
:100F4000EC01FB2E6F5771097595771F880B990B74
:100F50000E94D80628E132E741E35FE30E94CF0711
:100F6000AF2D9801AE01FF900F911F91CF91DF91AE
:100F70000E94E0050C942A070E94CF070C942A07D0
:100F80000E941C0738F00E94230720F0952311F0DF
:100F90000C9413070C94190711240C945E070E94FB
:100FA0003B0770F3959FC1F3950F50E0551F629F6B
:100FB000F001729FBB27F00DB11D639FAA27F00DB2
:100FC000B11DAA1F649F6627B00DA11D661F829FD9
:100FD0002227B00DA11D621F739FB00DA11D621FBE
:100FE000839FA00D611D221F749F3327A00D611DDB
:100FF000231F849F600D211D822F762F6A2F1124BD
:101000009F5750409AF0F1F088234AF0EE0FFF1FEF
:10101000BB1F661F771F881F91505040A9F79E3F46
:10102000510580F00C9413070C945E075F3FE4F3C6
:10103000983ED4F3869577956795B795F795E7959C
:101040009F5FC1F7FE2B880F911D9695879597F9A5
:101050000895FA01EE0FFF1F309621053105A1F129
:101060006115710561F48038BFE39B0749F168940D
:101070009038810561F08038BFEF9B0741F09923DC
:101080004AF5FF3FE1053105210519F1E89408947F
:10109000E795D901AA2329F4AB2FBE2FF85FD0F32F
:1010A00010C0FF5F70F4A695E0F7F73950F019F023
:1010B000FF3A38F49F779F930DD00F9007FC90581C
:1010C000089546F00C94190760E070E080E89FE313
:1010D00008954FE79F775F934F933F932F930E941D
:1010E00074072F913F914F915F910E94BC070C9420
:1010F000810829F416F00C9413070C945D070C94E6
:1011000019070E944307A8F39638A0F707F80F9233
:10111000E8942BE33AEA48EB5FE70E94D2070F928C
:101120000F920F924DB75EB70F920E942A09EEEA16
:10113000F0E00E94C1084F915F91EF91FF91E5951A
:10114000EE1FFF1F49F0FE57E0684427EE0F441FD3
:10115000FA95E1F74195550B0E94F4080F9007FEB0
:101160000C94E80808959F3F31F0915020F4879542
:1011700077956795B795880F911D9695879597F9FF
:101180000895DF93CF931F930F93FF92EF92DF9217
:101190007B018C01689406C0DA2EEF010E94CF0714
:1011A000FE01E894A5912591359145915591A6F3BD
:1011B000EF010E94E005FE019701A801DA9469F7AA
:1011C000DF90EF90FF900F911F91CF91DF910895E5
:1011D0009B01AC0160E070E080E89FE30C94350671
:1011E0000C9413070C94B3080E944307D8F3992377
:1011F000C9F3940F511DA3F39150504094F059F04E
:10120000882332F0660F771F881F91505040C1F736
:101210009E3F51052CF7880F911D9695879597F95C
:1012200008955F3FACF0983E9CF0BB27869577957C
:101230006795B79508F4B1609395C1F7BB0F58F760
:1012400011F460FFE8CF6F5F7F4F8F4F9F4FE3CF69
:101250000C945E07FA01DC01AA0FBB1F9B01AC01D5
:10126000BF5728F4222733274427507820C0B7518E
:1012700090F4AB2F0024469537952795011CA39534
:10128000D2F3002071F0220F331F441FB395DAF31D
:101290000ED00C94C80561307105A0E88A07B946E4
:1012A00030F49B01AC016627772788279078309629
:1012B00021F020833183428353830895A1E21A2EC3
:1012C000AA1BBB1BFD010DC0AA1FBB1FEE1FFF1FEA
:1012D000A217B307E407F50720F0A21BB30BE40B3A
:1012E000F50B661F771F881F991F1A9469F7609581
:1012F0007095809590959B01AC01BD01CF0108953B
:10130000A29FB001B39FC001A39F700D811D112446
:10131000911DB29F700D811D1124911D08950E9491
:101320008009A59F900DB49F900DA49F800D911DE5
:0813300011240895F894FFCF89
:1013380031323334353637383954656D70657261FA
:06134800747572653A00A5
:00000001FF
