:100000000C942A000C9447000C9447000C94470071
:100010000C9447000C9447000C9447000C94470044
:100020000C9447000C9447000C94F5010C94CE01FD
:100030000C9447000C9447000C9447000C94470024
:100040000C9447000C9447000C9447000C94470014
:100050000C94470011241FBECFE5D8E0DEBFCDBF12
:1000600010E0A0E6B0E0E2E8F4E002C005900D92F6
:10007000A237B107D9F720E0A2E7B0E001C01D9296
:10008000A437B207E1F70E94F9000C943F020C94E8
:10009000000040E060E282E00E94240141E06CE167
:1000A00082E00E94240108959BB39F70282F207F37
:1000B000922B9BBBD998DB9A3AE13A95F1F700C0B5
:1000C000DB98EFE8F1E03197F1F700C000002BB3C7
:1000D0002F70F0E18F9FC0011124822B8BBBDB9A24
:1000E0003AE13A95F1F700C0DB988FE19EE4019781
:1000F000F1F700C0000008958FEF8ABBDA982FEF68
:1001000081EE94E0215080409040E1F700C0000073
:1001100083E00E9454008FE19EE40197F1F700C054
:10012000000083E00E9454008FE19EE40197F1F704
:1001300000C0000083E00E9454008FE19EE401971C
:10014000F1F700C0000082E00E94540088E20E94A3
:1001500054008CE00E94540086E00E94540081E02C
:100160000E94540008959BB39F70282F207F922BEC
:100170009BBBD99ADB9A32E03A95F1F700C0DB9845
:10018000EFE8F1E03197F1F700C000002BB32F70DA
:10019000F0E18F9FC0011124822B8BBBDB9A32E0F0
:1001A0003A95F1F700C0DB988FE99FE00197F1F7EE
:1001B00000C000000895CF93DF93EC01888188236D
:1001C00031F021960E94B30089918111FBCFDF911C
:1001D000CF910895CF93DF934AE050E0C0E0D0E0A4
:1001E000BE010E94FF01CE010E94DB00DF91CF9192
:1001F00008950E947C000E94490041E060EF81E088
:100200000E94240140E064E081E00E94240180E635
:1002100090E00E947A0140E060E487E00E941901CA
:10022000EC0186E690E00E94DB00CE010E94EA002D
:10023000FFCF462B47B9806C86B9349BFECF84B183
:1002400025B190E0922B08954130E1F4813059F0CE
:1002500028F0823069F0833081F046C08AB3682B81
:100260006ABB81E0089587B3682B67BB81E008957E
:1002700084B3682B64BB81E0089581B3682B61BBB4
:1002800081E00895411132C0813081F028F0823040
:10029000B9F08330F9F02CC08AB3962F909589235A
:1002A0008ABB8BB3682B6BBB81E0089587B3962F15
:1002B0009095892387BB88B3682B68BB81E008953C
:1002C00084B3962F9095892384BB85B3682B65BB37
:1002D00081E0089581B3962F9095892381BB82B3E5
:1002E000682B62BB81E0089580E0089580E0089566
:1002F00080E00895FC01892B09F44CC0808188239B
:1003000019F0813029F148C08581813039F48FB7E7
:1003100080688FBF89B7826089BF03C089B78D7F2E
:1003200089BF8481813049F48FB780688FBF89B7D6
:10033000816089BF81E089BF03C089B78E7F89BF93
:1003400092818181892B9381892B83BF80E10895DC
:100350008581813039F48FB780688FBF89B7806815
:1003600089BF03C089B78F7789BF8481813039F411
:100370008FB780688FBF89B7806489BF03C089B792
:100380008F7B89BF92818181892B9381892B85BD48
:1003900080E1089581E1089581E108951F920F920F
:1003A0000FB60F9211242F933F934F935F936F9348
:1003B0007F938F939F93AF93BF93EF93FF93E091BE
:1003C0007200F09173000995FF91EF91BF91AF9189
:1003D0009F918F917F916F915F914F913F912F915D
:1003E0000F900FBE0F901F9018951F920F920FB68F
:1003F0000F9211240F900FBE0F901F901895453249
:10040000510520F4423010F00C940A02FB011082D6
:10041000CB010895BB274A3031F4992322F4BDE281
:10042000909581959F4F0C941602BB27FB01552791
:10043000AA27880F991FAA1FA41710F0A41B839541
:100440005051B9F7A05DAA3308F0A95DA1930097B8
:1004500079F7B111B1931192CB010C942F02DC0109
:10046000FC01672F71917723E1F7329704C07C91EB
:100470006D9370836291AE17BF07C8F30895F89427
:02048000FFCFAC
:1004820000000300000074656D706572617475721E
:02049200650003
:00000001FF
