:100000000C942A000C9447000C9447000C94470071
:100010000C9447000C9447000C9447000C94470044
:100020000C9447000C9447000C943D020C9416026B
:100030000C9447000C9447000C9447000C94470024
:100040000C9447000C9447000C9447000C94470014
:100050000C94470011241FBECFE5D8E0DEBFCDBF12
:1000600010E0A0E6B0E0E2E1F5E002C005900D92FC
:10007000AA36B107D9F720E0AAE6B0E001C01D9288
:10008000AC36B207E1F70E944B010C9487020C9446
:10009000000040E060E282E00E946C0141E06CE11F
:1000A00082E00E946C010895CF93DF9320E030E05E
:1000B0008FEFA1E0B0E085BB45B3F901B9016E5FF8
:1000C0007F4FED0102C0CC0FDD1F6A95E2F79C2F38
:1000D0009095942395BBCFECD7E02197F1F700C022
:1000E00000009D9B0AC09E9B05C09F9918C082E09E
:1000F00090E005C081E090E002C080E090E0AFE3D6
:10010000BCE91197F1F700C000009F01220F331FD7
:10011000E20FF31FE80FF91FCF01019607C02F5F11
:100120003F4F2330310539F684E190E0DF91CF91E4
:1001300008959BB39F70282F207F922B9BBBD9984B
:10014000DB9A3AE13A95F1F700C0DB98EFE8F1E08D
:100150003197F1F700C000002BB32F70F0E18F9FB3
:10016000C0011124822B8BBBDB9A3AE13A95F1F75F
:1001700000C0DB988FE19EE40197F1F700C000001A
:1001800008958FEF8ABBDA982FEF81EE94E021502B
:1001900080409040E1F700C0000083E00E94990099
:1001A0008FE19EE40197F1F700C0000083E00E9418
:1001B00099008FE19EE40197F1F700C0000083E011
:1001C0000E9499008FE19EE40197F1F700C00000C2
:1001D00082E00E94990088E20E9499008CE00E94CF
:1001E000990086E00E94990081E00E94990008959C
:1001F0009BB39F70282F207F922B9BBBD99ADB9AB1
:1002000032E03A95F1F700C0DB98EFE8F1E0319782
:10021000F1F700C000002BB32F70F0E18F9FC001F9
:100220001124822B8BBBDB9A32E03A95F1F700C0A8
:10023000DB988FE99FE00197F1F700C00000089577
:10024000CF93DF93EC018881882331F021960E94BF
:10025000F80089918111FBCFDF91CF91089581E062
:100260000E9499008FE097E20197F1F700C000002B
:1002700080E80E9499000895CF93DF934AE050E010
:10028000C0E0D0E0BE010E944702CE010E942001E2
:10029000DF91CF9108950E94C1000E94490041E082
:1002A00060EF81E00E946C0140E064E081E00E9428
:1002B0006C0180E690E00E94C20186E690E00E9418
:1002C00020010E945400EC014497D8F70E942F01AE
:1002D000CE010E943C01F5CF4130E1F4813059F06C
:1002E00028F0823069F0833081F046C08AB3682BF1
:1002F0006ABB81E0089587B3682B67BB81E00895EE
:1003000084B3682B64BB81E0089581B3682B61BB23
:1003100081E00895411132C0813081F028F08230AF
:10032000B9F08330F9F02CC08AB3962F90958923C9
:100330008ABB8BB3682B6BBB81E0089587B3962F84
:100340009095892387BB88B3682B68BB81E00895AB
:1003500084B3962F9095892384BB85B3682B65BBA6
:1003600081E0089581B3962F9095892381BB82B354
:10037000682B62BB81E0089580E0089580E00895D5
:1003800080E00895FC01892B09F44CC0808188230A
:1003900019F0813029F148C08581813039F48FB757
:1003A00080688FBF89B7826089BF03C089B78D7F9E
:1003B00089BF8481813049F48FB780688FBF89B746
:1003C000816089BF81E089BF03C089B78E7F89BF03
:1003D00092818181892B9381892B83BF80E108954C
:1003E0008581813039F48FB780688FBF89B7806885
:1003F00089BF03C089B78F7789BF8481813039F481
:100400008FB780688FBF89B7806489BF03C089B701
:100410008F7B89BF92818181892B9381892B85BDB7
:1004200080E1089581E1089581E108951F920F927E
:100430000FB60F9211242F933F934F935F936F93B7
:100440007F938F939F93AF93BF93EF93FF93E0912D
:100450006A00F0916B000995FF91EF91BF91AF9108
:100460009F918F917F916F915F914F913F912F91CC
:100470000F900FBE0F901F9018951F920F920FB6FE
:100480000F9211240F900FBE0F901F9018954532B8
:10049000510520F4423010F00C945202FB011082FE
:1004A000CB010895BB274A3031F4992322F4BDE2F1
:1004B000909581959F4F0C945E02BB27FB015527B9
:1004C000AA27880F991FAA1FA41710F0A41B8395B1
:1004D0005051B9F7A05DAA3308F0A95DA193009728
:1004E00079F7B111B1931192CB010C947702DC0131
:1004F000FC01672F71917723E1F7329704C07C915B
:100500006D9370836291AE17BF07C8F30895F89496
:02051000FFCF1B
:0A0512000000030000006B65790093
:00000001FF
