:100000000C946B000C9488000C9488000C9488006D
:100010000C9488000C9488000C9488000C94880040
:100020000C9488000C9488000C94B2020C948B02FF
:100030000C9488000C946D030C9488000C94940329
:100040000C9488000C9488000C9488000C94880010
:100050000C94880007634236B79BD8A71A396856B4
:1000600018AEBAAB558C1D3CB7CC5763BD6DEDFDDA
:10007000753EF6177231BF000000803F0800000097
:10008000BE922449123EABAAAA2ABECDCCCC4C3E8D
:1000900000000080BEABAAAAAA3E00000000BF007C
:1000A0000000803F0000000000084178D3BB438778
:1000B000D1133D190E3CC3BD4282AD2B3E68EC828C
:1000C00076BED98FE1A93E4C80EFFFBE01C4FF7F11
:1000D0003F000000000011241FBECFE5D8E0DEBFC6
:1000E000CDBF11E0A0E6B0E0EAEAFEE002C0059074
:1000F0000D92AE30B107D9F721E0AEE0B1E001C01A
:100100001D92AB31B207E1F70E9410020C94530725
:100110000C9400000E946B0241E06FEF81E00E94AE
:1001200015028CEC90E00E94BC0283E080931901E0
:1001300008958F929F92AF92BF92EF92FF920F938A
:100140001F93CF93DF937C0107E010E0D0E0F7012D
:10015000C1917F01B801012E000C880B990B0E9400
:100160005A049B01AC0160E070E080E090E40E94E2
:1001700053054B015C0160ED6C0F70E080E090E096
:100180000E945A04A50194010E94E6044B015C01FF
:100190006D2F70E080E090E00E945A049B01AC015A
:1001A000C501B4010E94BD030E942904D62F01504D
:1001B000110968F6862FDF91CF911F910F91FF9063
:1001C000EF90BF90AF909F908F900895CF93DF9363
:1001D000EC016DE00E9444036091CA007091CB0075
:1001E000CE010E944A07892BB1F46DE0CE010E9436
:1001F0004403CE010E94990080930F0160E080913A
:10020000C6009091C7000E9427038DE00E941F0343
:10021000109219012FC06091C8007091C900CE01E1
:100220000E944A07892B31F56DE0CE010E944403FC
:10023000CE010E94990080930F0160E08091C6007A
:100240009091C7000E9427038DE00E941F030E9427
:10025000230380930E010E94230360E08091C60077
:100260009091C7000E9427038DE00E941F0381E048
:1002700080931901DF91CF91089580911901813008
:1002800051F118F08330F1F1089580910F016EE083
:1002900071E090E00E94BE018093180181110FC0AF
:1002A00060E08091C4009091C5000E942703809176
:1002B0000E010E941F038DE00E941F0308C060E032
:1002C00087ED90E00E9427038DE00E941F0383E0EA
:1002D00080931901089580910F0160910E0190E0C3
:1002E0000E94870180931801882341F060E083EE2B
:1002F00090E00E9427038DE00E941F0383E080931B
:100300001901089580E690E00E94E60008951F9389
:10031000CF93DF93EC01162F0E9471020E94880296
:10032000883009F5CE0188279770880F892F881F9C
:10033000990B9195806A0E947A020E948802883106
:10034000A1F48C2F0E947A020E948802883279F4EC
:10035000812F0E947A020E948802883251F40E9402
:10036000770280E007C081E005C081E003C081E042
:1003700001C081E0DF91CF911F910895EF92FF922C
:100380000F931F93CF93DF93EC018B010E947102B7
:100390000E948802883091F57E01EE2487E0F822E1
:1003A000EE0CEF2CEE1CFF08F1948E2D806A0E945B
:1003B0007A020E948802883119F58C2F0E947A02F5
:1003C0000E9488028832F1F40E9471020E94880221
:1003D0008031D1F48E2D816A0E947A020E948802B7
:1003E0008034A1F40E948102F80180830E94880277
:1003F000883571F40E94770280E00BC080E009C06C
:1004000081E007C081E005C081E003C081E001C058
:1004100081E0DF91CF911F910F91FF90EF900895B0
:100420000E948A000E943D01FDCF4130E1F48130FD
:1004300059F028F0823069F0833081F046C08AB3E9
:10044000682B6ABB81E0089587B3682B67BB81E0A6
:10045000089584B3682B64BB81E0089581B3682B51
:1004600061BB81E00895411132C0813081F028F0F4
:100470008230B9F08330F9F02CC08AB3962F909572
:1004800089238ABB8BB3682B6BBB81E0089587B34C
:10049000962F9095892387BB88B3682B68BB81E032
:1004A000089584B3962F9095892384BB85B3682BD8
:1004B00065BB81E0089581B3962F9095892381BB18
:1004C00082B3682B62BB81E0089580E0089580E0EC
:1004D000089580E0089582E086BF8FEF80B980E0C4
:1004E000089584EA86BF06B607FEFDCF089584E925
:1004F00086BF089583B984E886BF06B607FEFDCFA0
:10050000089584E886BF06B607FEFDCF83B108953F
:1005100081B1887F08951F920F920FB60F92112418
:100520002F933F934F935F936F937F938F939F93FB
:10053000AF93BF93EF93FF93E0911001F0911101FE
:100540000995FF91EF91BF91AF919F918F917F910D
:100550006F915F914F913F912F910F900FBE0F9030
:100560001F9018951F920F920FB60F9211240F90A3
:100570000FBE0F901F901895FC018081811113C050
:100580008181811107C083E390E0909313018093F0
:10059000120111C0813079F487E690E09093130145
:1005A0008093120108C0803431F48FE991E0909378
:1005B0001301809312018091120189B98091130176
:1005C00080BD8281813011F4539A03C0811133C000
:1005D00053988381813011F4549A04C0828181112F
:1005E00001C054988481863021F480B5866880BD2E
:1005F00005C0843019F480B5866080BD818580385F
:1006000029F4579A8FB780688FBF03C0811101C04A
:1006100057988085803429F4569A8FB780688FBFA9
:1006200003C0811101C056988BEB93E090931501A4
:1006300080931401089583818130A1F6CDCF5D9B15
:10064000FECF8CB908955F9BFECF8CB108950F93B8
:100650001F93CF93DF938C01D62FFC018081681705
:1006600059F0C0E080810E941F03CF5FF801EC0FBA
:10067000F11D80818D13F6CF8D2F0E941F03DF9116
:10068000CF911F910F910895EF92FF920F931F93B7
:10069000CF93DF930097C9F0D62F7C010E942303EC
:1006A000F70180838D1761F0C0E0CF5F87010C0FE9
:1006B000111D0E942303F8018083D813F6CF01C0D7
:1006C0008701F801108280E001C081E0DF91CF91C5
:1006D0001F910F91FF90EF9008951F920F920FB608
:1006E0000F9211242F933F934F935F936F937F93B8
:1006F0008F939F93AF93BF93EF93FF93E091140178
:10070000F09115010995FF91EF91BF91AF919F91E4
:100710008F917F916F915F914F913F912F910F90AA
:100720000FBE0F901F9018951F920F920FB60F9249
:1007300011242F933F934F935F936F937F938F93E6
:100740009F93AF93BF93EF93FF93E0911601F091C6
:1007500017010995FF91EF91BF91AF919F918F91F3
:100760007F916F915F914F913F912F910F900FBEAD
:100770000F901F90189508955058BB27AA270E94E4
:10078000D4030C94AC040E949E0438F00E94A5048B
:1007900020F039F49F3F19F426F40C949B040EF4D6
:1007A000E095E7FB0C949504E92F0E94BD0458F3F3
:1007B000BA17620773078407950720F079F4A6F546
:1007C0000C94DF040EF4E0950B2EBA2FA02D0B0134
:1007D000B90190010C01CA01A0011124FF27591B86
:1007E00099F0593F50F4503E68F11A16F040A22F8C
:1007F000232F342F4427585FF3CF469537952795FD
:10080000A795F0405395C9F77EF41F16BA0B620BFB
:10081000730B840BBAF09150A1F0FF0FBB1F661F42
:10082000771F881FC2F70EC0BA0F621F731F841F85
:1008300048F4879577956795B795F7959E3F08F0AB
:10084000B0CF9395880F08F09927EE0F979587956D
:1008500008950E94C50488F09F5798F0B92F9927F2
:10086000B751B0F0E1F0660F771F881F991F1AF09B
:10087000BA95C9F714C0B13091F00E94DF04B1E01D
:1008800008950C94DF04672F782F8827B85F39F01C
:10089000B93FCCF3869577956795B395D9F73EF434
:1008A00090958095709561957F4F8F4F9F4F0895DC
:1008B000E89409C097FB3EF49095809570956195FA
:1008C0007F4F8F4F9F4F9923A9F0F92F96E9BB27B0
:1008D0009395F695879577956795B795F111F8CF2C
:1008E000FAF4BB0F11F460FF1BC06F5F7F4F8F4F97
:1008F0009F4F16C0882311F096E911C0772321F08D
:100900009EE8872F762F05C0662371F096E8862F24
:1009100070E060E02AF09A95660F771F881FDAF77B
:10092000880F9695879597F9089597F99F6780E8BE
:1009300070E060E008959FEF80EC089500240A9431
:100940001616170618060906089500240A941216AA
:100950001306140605060895092E0394000C11F4DD
:10096000882352F0BB0F40F4BF2B11F460FF04C08A
:100970006F5F7F4F8F4F9F4F089557FD9058440FE3
:10098000551F59F05F3F71F04795880F97FB991FEE
:1009900061F09F3F79F087950895121613061406AB
:1009A000551FF2CF4695F1DF08C016161706180638
:1009B000991FF1CF86957105610508940895E89413
:1009C000BB2766277727CB0197F908950E94F90482
:1009D0000C94AC040E949E0438F00E94A50420F000
:1009E000952311F00C9495040C949B0411240C9401
:1009F000E0040E94BD0470F3959FC1F3950F50E091
:100A0000551F629FF001729FBB27F00DB11D639FC0
:100A1000AA27F00DB11DAA1F649F6627B00DA11D66
:100A2000661F829F2227B00DA11D621F739FB00D0C
:100A3000A11D621F839FA00D611D221F749F33277C
:100A4000A00D611D231F849F600D211D822F762F15
:100A50006A2F11249F5750409AF0F1F088234AF0F2
:100A6000EE0FFF1FBB1F661F771F881F915050405E
:100A7000A9F79E3F510580F00C9495040C94E00476
:100A80005F3FE4F3983ED4F3869577956795B795E5
:100A9000F795E7959F5FC1F7FE2B880F911D9695FF
:100AA000879597F90895FA01EE0FFF1F30962105FB
:100AB0003105A1F16115710561F48038BFE39B0731
:100AC00049F168949038810561F08038BFEF9B0749
:100AD00041F099234AF5FF3FE1053105210519F160
:100AE000E8940894E795D901AA2329F4AB2FBE2FE7
:100AF000F85FD0F310C0FF5F70F4A695E0F7F73908
:100B000050F019F0FF3A38F49F779F930DD00F9073
:100B100007FC9058089546F00C949B0460E070E048
:100B200080E89FE308954FE79F775F934F933F934C
:100B30002F930E944E062F913F914F915F910E94FB
:100B4000E6040C94AB0529F416F00C9495040C946F
:100B5000DF040C949B040E94C504A8F39638A0F708
:100B600007F80F92E8942BE33AEA48EB5FE70E941C
:100B7000FC040F920F920F924DB75EB70F920E9436
:100B80009606E4E5F0E00E94DD054F915F91EF915C
:100B9000FF91E595EE1FFF1F49F0FE57E0684427DF
:100BA000EE0F441FFA95E1F74195550B0E94100690
:100BB0000F9007FE0C9404060895DF93CF931F93C4
:100BC0000F93FF92EF92DF927B018C01689406C035
:100BD000DA2EEF010E94F904FE01E894A591259117
:100BE000359145915591A6F3EF010E94D403FE0182
:100BF0009701A801DA9469F7DF90EF90FF900F91C9
:100C00001F91CF91DF9108959B01AC0160E070E0EE
:100C100080E89FE30C94CA060C9495040C943C075E
:100C20000E94C504D8F39923C9F3940F511DA3F36F
:100C30009150504094F059F0882332F0660F771F9E
:100C4000881F91505040C1F79E3F51052CF7880FE7
:100C5000911D9695879597F908955F3FACF0983E62
:100C60009CF0BB27869577956795B79508F4B1609A
:100C70009395C1F7BB0F58F711F460FFE8CF6F5F92
:100C80007F4F8F4F9F4FE3CF0C94E00416F00C94EE
:100C90003C070C949B0468940C9495040E94C50432
:100CA000A8F39923C1F3AEF3DF93CF931F930F9370
:100CB000FF92C92FDD2788232AF02197660F771F1F
:100CC000881FDAF720E030E040E85FEB9FE38839E7
:100CD00020F0803E38F021968F770E94BD03ECE72C
:100CE000F0E004C00E94BD03E9EAF0E00E94DD05E7
:100CF0008B01BE01EC01FB2E6F5771097595771FB3
:100D0000880B990B0E945A0428E132E741E35FE324
:100D10000E94F904AF2D9801AE01FF900F911F9131
:100D2000CF91DF910E94D4030C94AC04FA01DC0152
:100D3000AA0FBB1F9B01AC01BF5728F42227332702
:100D40004427507820C0B75190F4AB2F002446952B
:100D500037952795011CA395D2F3002071F0220F3F
:100D6000331F441FB395DAF30ED00C94BC036130EB
:100D70007105A0E88A07B94630F49B01AC016627EB
:100D8000772788279078309621F02083318342831B
:100D9000538308950E94DE060C94AC040E94A504BF
:100DA00058F00E949E0440F029F45F3F29F00C9413
:100DB000950451110C94E0040C949B040E94BD0412
:100DC00068F39923B1F3552391F3951B550BBB277A
:100DD000AA2762177307840738F09F5F5F4F220FBF
:100DE000331F441FAA1FA9F335D00E2E3AF0E0E8B6
:100DF00032D091505040E695001CCAF72BD0FE2F00
:100E000029D0660F771F881FBB1F26173707480793
:100E1000AB07B0E809F0BB0B802DBF01FF2793584B
:100E20005F4F3AF09E3F510578F00C9495040C9476
:100E3000E0045F3FE4F3983ED4F386957795679599
:100E4000B795F7959F5FC9F7880F911D9695879580
:100E500097F90895E1E0660F771F881FBB1F62179F
:100E600073078407BA0720F0621B730B840BBA0B5D
:100E7000EE1F88F7E09508959F3F31F0915020F4E0
:100E8000879577956795B795880F911D9695879566
:100E900097F90895FB01DC018D91019080190110F3
:0A0EA000D9F3990B0895F894FFCFE1
:100EAA0048492E2E537072696E7473000000000058
:100EBA000000000000000000000000000000000028
:100ECA000000000000000000000000000000000018
:100EDA000000000000000000000000000000000008
:100EEA0000000000000000000000000000000000F8
:100EFA0000000000000000000000000000000000E8
:100F0A0000000000F00000010301090100000101D6
:100F1A0006000000008000205245414420455252FC
:100F2A004F5200205752495445204552524F5200C1
:100F3A00446174612073746F726564206973200060
:0E0F4A004F4B00575249544500524541440058
:00000001FF
