S01F0000546865726D6F73746174205465616D2050726F6A6563742E737265633C
S11300000C946B000C9488000C946E050C9495056C
S11300100C94BC050C9488000C9488000C94880003
S11300200C9488000C9488000C9488000C94C606E8
S11300300C9488000C9408080C9488000C942F08E5
S11300400C9403040C9488000C9488000C9488008D
S11300500C94880008000000BE922449123EABAA0A
S1130060AA2ABECDCCCC4C3E00000080BEABAAAACE
S1130070AA3E00000000BF000000803F0000000016
S113008000084178D3BB4387D1133D190E3CC3BD4F
S11300904282AD2B3E68EC8276BED98FE1A93E4CFC
S11300A080EFFFBE01C4FF7F3F0000000000076334
S11300B04236B79BD8A71A39685618AEBAAB558CD6
S11300C01D3CB7CC5763BD6DEDFD753EF61772311F
S11300D0BF000000803F11241FBECFE5D8E0DEBF83
S11300E0CDBF10E0A0E6B0E0E8E5F8E102C005907D
S11300F00D92A439B107D9F720E0A4E9B0E001C01A
S11301001D92AA3AB207E1F70E94E3050C942A0C67
S11301100C94000041E062E082E00E942C0441E083
S113012063E082E00E942C0441E064E082E00E94EB
S11301302C0441E062E082E00E94B60441E063E006
S113014082E00E94B60441E064E082E00E94B604CA
S113015040E065E082E00E942C0440E066E082E03A
S11301600E942C0440E067E082E00E942C0441E0FD
S113017065E082E00E94B60441E066E082E00E940D
S1130180B60441E067E082E00E94B60408951F933C
S1130190CF93DF9312E0D1E328C040E0612F82E0E7
S11301A00E94B604C5E019C06C2F82E00E9440058D
S11301B0811111C088E290E00E9426076C2F82E032
S11301C00E9440058823D1F341E0612F82E00E9420
S11301D0B6048D2F0DC0DF5FCF5FC83028F341E038
S11301E0612F82E00E94B6041F5F1530B0F280E0F8
S11301F0DF91CF911F910895CF93C82F8BB38F7048
S11302009C2F907F892B8BBB40E061E080E00E94B3
S1130210B60441E063E080E00E94B6048AE090E026
S11302200E94260740E063E080E00E94B6048AE072
S113023090E00E9426072BB330E1C39FC001112434
S1130240922F9F70892B8BBB41E063E080E00E947A
S1130250B6048AE090E00E94260740E063E080E074
S11302600E94B6048AE090E00E942607CF91089588
S113027084E690E00E94260741E061E080E00E946D
S11302802C0441E062E080E00E942C0441E063E041
S113029080E00E942C0441E064E080E00E942C0491
S11302A041E065E080E00E942C0441E066E080E0EB
S11302B00E942C0441E067E080E00E942C0483E06B
S11302C00E94FC008AE090E00E94260783E00E94DE
S11302D0FC008AE090E00E94260783E00E94FC0074
S11302E08AE090E00E94260782E00E94FC008AE0F7
S11302F090E00E94260780E20E94FC008AE090E0E1
S11303000E94260788E00E94FC008AE090E00E9498
S1130310260781E00E94FC008AE090E00E94260704
S113032086E00E94FC008AE090E00E9426078CE0B0
S11303300E94FC008AE090E00E9426070895CF9373
S1130340C82F8BB38F709C2F907F892B8BBB41E080
S113035061E080E00E94B60441E063E080E00E9436
S1130360B6048AE090E00E94260740E063E080E063
S11303700E94B6048AE090E00E9426072BB330E185
S1130380C39FC0011124922F9F70892B8BBB41E026
S113039063E080E00E94B6048AE090E00E942607B1
S11303A040E063E080E00E94B6048AE090E00E94AE
S11303B02607CF9108950F931F93CF938C01C0E02C
S11303C003C00E949F01CF5FF801EC0FF11D8081F3
S11303D08111F7CFCF911F910F910895CF92DF92A2
S11303E0EF92FF92CF93DF93CDB7DEB728970FB686
S11303F0F894DEBF0FBECDBF0E9466096B017C017D
S11304000E94F4090E9437096A838A818F5F8C8372
S11304106A8170E080E090E00E9466099B01AC0173
S113042060E070E080E291E40E94B90A9B01AC01B3
S1130430C701B6010E94C5080E94370969836A8111
S113044070E080E090E00E9466099B01AC0160E0EE
S113045070E080E291E40E94B90A9B01AC01C701FB
S1130460B6010E94C5086D837E838F839887898136
S113047080638B838B810E949F018C8181508C834C
S1130480CD80DE80EF80F884698170E080E090E0C8
S11304900E9468099B01AC01C701B6010E9458087B
S11304A06D837E838F8398876D817E818F8198850C
S11304B020E030E040E251E40E944C0A0E943709F7
S11304C069836D817E818F81988520E030E040E2F0
S11304D051E40E944C0A6D837E838F8398878C81BC
S11304E08111C5CF28960FB6F894DEBF0FBECDBFDD
S11304F0DF91CF91FF90EF90DF90CF9008958031FE
S113050039F40E94FC0085E090E00E9426070895DB
S1130510843131F40E94FC0085E090E00E942607BB
S11305200895843119F0853109F136C041E062E063
S113053083E00E942C0441E063E083E00E942C04E9
S113054041E064E083E00E942C0440E062E083E048
S11305500E94B60440E063E083E00E94B60440E0F9
S113056064E083E00E94B60481E0089541E066E01F
S113057083E00E942C0441E067E083E00E942C04A5
S113058040E066E083E00E94B60440E067E083E078
S11305900E94B60481E0089580E00895843119F042
S11305A08531D9F034C0673161F440E062E083E022
S11305B00E94B60441E063E083E00E94B60481E057
S11305C0089541E062E083E00E94B60440E063E005
S11305D083E00E94B60481E00895673161F440E04D
S11305E066E083E00E94B60441E067E083E00E9495
S11305F0B60481E0089541E066E083E00E94B60419
S113060040E067E083E00E94B60481E0089580E062
S11306100895843119F0853151F00DC00E94CE0245
S113062041E064E083E00E94B60481E008950E9402
S1130630CE0281E0089580E00895843119F0853177
S113064051F00DC00E94CE0240E064E083E00E94BD
S1130650B60481E008950E94CE0281E0089580E00E
S1130660089540E060E080E00E942C0440E060E0F7
S113067080E00E94B6040E94AD030E94DE03089548
S11306800F931F93CF93DF9300D01F92CDB7DEB7A4
S113069019821B821A82009709F456C08C01CE017C
S11306A001960E94E50389818130A1F4CE0102966E
S11306B00E94F0032A813B81A4ECB9E00E94100C53
S11306C020E137E240E050E00E94EE0B20939700D7
S11306D08DE301C08CE390919600911104C0909138
S11306E097009093960090919500911104C0909179
S11306F096009093950090919400911104C090916C
S11307009500909394005091950040919600242F69
S113071030E0250F311D90919400290F311D9091E7
S11307209700290F311D332314F42D5F3F4F359566
S1130730279535952795F80120835093940040938D
S113074095009093960001C08EE30F900F900F9048
S1130750DF91CF911F910F91089587B1806887B978
S113076087B1806487B987B18F7E87B987B1877F66
S113077087B987B18B7F87B987B18D7F87B987B1F7
S11307808E7F87B986B1806886B986B1877F86B93E
S113079086B1806286B980B78F7780BF80B78F7B40
S11307A080BF80B78F7D80BF86B1846086B986B1F3
S11307B0826086B986B1816086B9089586B1806801
S11307C086B986B1806486B90895FC01892B31F01D
S11307D096B19295917090838EE208958DE208957A
S11307E0009779F024B130E0FC013183208345B1D6
S11307F050E0542F4427242B352B318320838EE261
S113080008958DE208951F920F920FB60F9211244E
S11308102F933F934F935F936F937F938F939F9304
S1130820AF93BF93EF93FF93E0919800F0919900F9
S1130830309709F00995FF91EF91BF91AF919F9186
S11308408F917F916F915F914F913F912F910F9075
S11308500FBE0F901F901895813031F138F082301F
S113086009F440C0833009F45AC076C041110DC068
S113087081E090E002C0880F991F6A95E2F78095A5
S11308809AB389238ABB84E00895413009F066C095
S113089081E090E002C0880F991F6A95E2F79AB34D
S11308A0892B8ABB84E0089541110DC081E090E05A
S11308B002C0880F991F6A95E2F7809597B3892340
S11308C087BB84E00895413009F04AC081E090E09C
S11308D002C0880F991F6A95E2F797B3892B87BBEB
S11308E084E0089541110DC081E090E002C0880FBA
S11308F0991F6A95E2F7809594B3892384BB84E0B9
S11309000895413079F581E090E002C0880F991F85
S11309106A95E2F794B3892B84BB84E0089541116E
S11309200DC081E090E002C0880F991F6A95E2F73C
S1130930809591B3892381BB84E008954130A1F46B
S113094081E090E002C0880F991F6A95E2F791B3A5
S1130950892B81BB84E0089585E0089584E008959F
S113096084E0089584E0089584E00895813031F1AD
S113097038F0823009F440C0833009F45AC076C09C
S113098041110DC081E090E002C0880F991F6A9563
S1130990E2F780959BB389238BBB84E008954130B3
S11309A009F066C081E090E002C0880F991F6A9543
S11309B0E2F79BB3892B8BBB84E0089541110DC0F2
S11309C081E090E002C0880F991F6A95E2F7809554
S11309D098B3892388BB84E00895413009F04AC064
S11309E081E090E002C0880F991F6A95E2F798B3FE
S11309F0892B88BB84E0089541110DC081E090E00B
S1130A0002C0880F991F6A95E2F7809595B38923F0
S1130A1085BB84E00895413079F581E090E002C01F
S1130A20880F991F6A95E2F795B3892B85BB84E0FB
S1130A30089541110DC081E090E002C0880F991F14
S1130A406A95E2F7809592B3892382BB84E0089586
S1130A504130A1F481E090E002C0880F991F6A95AB
S1130A60E2F792B3892B82BB84E0089585E0089570
S1130A7084E0089584E0089584E0089584E008956E
S1130A80813079F028F08230A9F08330E1F024C07D
S1130A9089B390E002C0959587956A95E2F78170D5
S1130AA0089586B390E002C0959587956A95E2F71C
S1130AB08170089583B390E002C0959587956A95F7
S1130AC0E2F78170089580B390E002C09595879510
S1130AD06A95E2F78170089585E008951F920F9258
S1130AE00FB60F9211242F933F934F935F936F93FD
S1130AF07F938F939F93AF93BF93EF93FF93E09173
S1130B009E00F0919F000995FF91EF91BF91AF91E5
S1130B109F918F917F916F915F914F913F912F9111
S1130B200F900FBE0F901F9018951F920F920FB643
S1130B300F9211242F933F934F935F936F937F935F
S1130B408F939F93AF93BF93EF93FF93E0919C0098
S1130B50F0919D000995FF91EF91BF91AF919F9105
S1130B608F917F916F915F914F913F912F910F9052
S1130B700FBE0F901F9018951F920F920FB60F92F1
S1130B8011242F933F934F935F936F937F938F938E
S1130B909F93AF93BF93EF93FF93E0919A00F091EB
S1130BA09B000995FF91EF91BF91AF919F918F9118
S1130BB07F916F915F914F913F912F910F900FBE55
S1130BC00F901F901895CF93DF931F92CDB7DEB788
S1130BD019820E9431030E9438010E948A0084E134
S1130BE00E94910240E062E081E00E942C04CE0168
S1130BF001960E94400380E690E00E949A07FF2439
S1130C00F394DD24D39410E000E0C12CE12C03C064
S1130C10FF24F39410E0D1100FC062E081E00E9441
S1130C204005182F82E390E00E94260762E081E0ED
S1130C300E9440058130D1F3FF2021F081E0F816B5
S1130C4011F1E9CFCE0101960E944003698170E061
S1130C5080E090E00E94EE0180E10E947F0280E14A
S1130C600E947F0289818E1528F067E184E10E9449
S1130C70090306C0C81620F069E184E10E941D033F
S1130C80113049F6C5CF81E00E94FC008BE690E06C
S1130C900E94DB0176C00E94C70010ED180F81533B
S1130CA0893060F401110AC0612F70E080E090E0A7
S1130CB00E94EE010F5FE12ED12C2AC0893080F40E
S1130CC0013071F4612F70E080E090E00E94EE0149
S1130CD0EE0C8E2D880F880FE80EE10E0F5F18C002
S1130CE08930B0F40230A1F481E00E94FC0089E76D
S1130CF090E00E94DB0188EE93E00E94260781E0E9
S1130D000E94FC008BE690E00E94DB0100E0E12CF5
S1130D1062E081E00E944005182F82E390E00E9487
S1130D202607113071F5D1102CC087E28E15A0F082
S1130D3069E184E10E941D030F2EFDEFCF2EF02DFB
S1130D40CE0C81E00E94FC0087E890E00E94DB0169
S1130D50F12C10E000E015C081E00E94FC0089E75E
S1130D6090E00E94DB0188EE93E00E94260781E078
S1130D700E94FC008BE690E00E94DB0110E000E0A2
S1130D80E12C81E0F81609F486CF45CF1F920F922B
S1130D900FB60F9211248F939F93AF93BF938091BB
S1130DA0A0009091A100A091A200B091A30001968F
S1130DB0A11DB11D8093A0009093A100A093A20057
S1130DC0B093A300BF91AF919F918F910F900FBEED
S1130DD00F901F90189589B7816089BF8FB780687D
S1130DE08FBF08958130910521F483B7816083BF5B
S1130DF008958830910521F483B7826083BF0895F4
S1130E008032910521F483B7836083BF08958034D1
S1130E10910521F483B7846083BF089580389105D8
S1130E2021F483B7856083BF0895811521E092077B
S1130E3021F483B7866083BF08958115944019F423
S1130E4083B7876083BF089513BE0895CF92DF925E
S1130E50EF92FF92CF93DF9300D000D000D0CDB7B4
S1130E60DEB7BC0180E090E00E9466092FE632E123
S1130E7043E85AE30E94C5086B017C0120E030E09E
S1130E804FE753E40E94C5080E94370969837A83B7
S1130E908B839C8329813A814B815C81AFEFB0E0E5
S1130EA00E941F0C0E9466099B01AC01C701B60198
S1130EB00E9458080E9437097E836D830E94EB06C6
S1130EC088E090E00E94F2064091A0005091A100B9
S1130ED06091A2007091A30089819A81AB81BC8149
S1130EE0481759076A077B0778F38D819E8180959F
S1130EF082BF0E9424071092A0001092A1001092B9
S1130F00A2001092A30026960FB6F894DEBF0FBE7F
S1130F10CDBFDF91CF91FF90EF90DF90CF900895F8
S1130F209093A7008093A60008959093A9008093BE
S1130F30A8000895FC01808181110AC0918191115A
S1130F4007C083E390E09093A5008093A40014C0AD
S1130F5081110AC09181913039F487E690E0909331
S1130F60A5008093A40008C0803431F48FE991E097
S1130F709093A5008093A4008091A40089B98091E6
S1130F80A50080BD8281813021F48AB188608AB94C
S1130F9005C0811103C08AB1877F8AB983818130FA
S1130FA021F48AB180618AB906C08281811103C0AB
S1130FB08AB18F7E8AB98481863021F480B58668AF
S1130FC080BD05C0843019F480B5866080BD8185FC
S1130FD0803821F48AB180688AB905C0811103C0C0
S1130FE08AB18F778AB98085803421F48AB180648C
S1130FF08AB905C0811103C08AB18F7B8AB986E59D
S113100098E00E94900787E598E00E94950708956C
S11310101F920F920FB60F9211242F933F934F9369
S11310205F936F937F938F939F93AF93BF93EF934C
S1131030FF93E091A600F091A7000995FF91EF912D
S1131040BF91AF919F918F917F916F915F914F91DC
S11310503F912F910F900FBE0F901F9018951F92E4
S11310600F920FB60F9211242F933F934F935F93D8
S11310706F937F938F939F93AF93BF93EF93FF935C
S1131080E091A800F091A9000995FF91EF91BF911B
S1131090AF919F918F917F916F915F914F913F910C
S11310A02F910F900FBE0F901F90189508950895DB
S11310B05058BB27AA270E9470080C94BA090E94B2
S11310C0AC0938F00E94B30920F039F49F3F19F4B9
S11310D026F40C94A9090EF4E095E7FB0C94A309FB
S11310E0E92F0E94CB0958F3BA17620773078407E4
S11310F0950720F079F4A6F50C94ED090EF4E0952B
S11311000B2EBA2FA02D0B01B90190010C01CA01BD
S1131110A0011124FF27591B99F0593F50F4503E68
S113112068F11A16F040A22F232F342F4427585F5A
S1131130F3CF469537952795A795F0405395C9F772
S11311407EF41F16BA0B620B730B840BBAF091502A
S1131150A1F0FF0FBB1F661F771F881FC2F70EC0C9
S1131160BA0F621F731F841F48F48795779567959C
S1131170B795F7959E3F08F0B0CF9395880F08F088
S11311809927EE0F9795879508950E94D9080C9496
S1131190BA090E94B30958F00E94AC0940F029F43E
S11311A05F3F29F00C94A30951110C94EE090C949F
S11311B0A9090E94CB0968F39923B1F3552391F34C
S11311C0951B550BBB27AA2762177307840738F0B2
S11311D09F5F5F4F220F331F441FAA1FA9F335D00F
S11311E00E2E3AF0E0E832D091505040E695001CC3
S11311F0CAF72BD0FE2F29D0660F771F881FBB1F7D
S1131200261737074807AB07B0E809F0BB0B802D5A
S1131210BF01FF2793585F4F3AF09E3F510578F086
S11312200C94A3090C94EE095F3FE4F3983ED4F3C5
S1131230869577956795B795F7959F5FC9F7880F5A
S1131240911D9695879597F90895E1E0660F771FAC
S1131250881FBB1F621773078407BA0720F0621B3D
S1131260730B840BBA0BEE1F88F7E09508950E9468
S1131270D30988F09F5798F0B92F9927B751B0F048
S1131280E1F0660F771F881F991F1AF0BA95C9F706
S113129014C0B13091F00E94ED09B1E008950C94AE
S11312A0ED09672F782F8827B85F39F0B93FCCF361
S11312B0869577956795B395D9F73EF49095809583
S11312C0709561957F4F8F4F9F4F0895E89409C0A3
S11312D097FB3EF490958095709561957F4F8F4F65
S11312E09F4F9923A9F0F92F96E9BB279395F6957B
S11312F0879577956795B795F111F8CFFAF4BB0FF9
S113130011F460FF1BC06F5F7F4F8F4F9F4F16C05C
S1131310882311F096E911C0772321F09EE8872FE6
S1131320762F05C0662371F096E8862F70E060E0A2
S11313302AF09A95660F771F881FDAF7880F96951B
S1131340879597F9089597F99F6780E870E060E0C2
S113135008959FEF80EC089500240A94161617064A
S113136018060906089500240A9412161306140692
S113137005060895092E0394000C11F4882352F0F5
S1131380BB0F40F4BF2B11F460FF04C06F5F7F4FAD
S11313908F4F9F4F089557FD9058440F551F59F094
S11313A05F3F71F04795880F97FB991F61F09F3F4E
S11313B079F087950895121613061406551FF2CF77
S11313C04695F1DF08C0161617061806991FF1CFC7
S11313D086957105610508940895E894BB276627EE
S11313E07727CB0197F908950E94040A29ED3BE57C
S11313F04EED5EE30C944C0A16F00C94430B0C94E3
S1131400A90968940C94A3090E94D309A8F3992309
S1131410C1F3AEF3DF93CF931F930F93FF92C92FC2
S1131420DD2788232AF02197660F771F881FDAF7B4
S113143020E030E040E85FEB9FE3883920F0803E15
S113144038F021968F770E945908E4E5F0E004C053
S11314500E945908E1E8F0E00E94510B8B01BE01A3
S1131460EC01FB2E6F5771097595771F880B990B4B
S11314700E94680928E132E741E35FE30E945F0AC2
S1131480AF2D9801AE01FF900F911F91CF91DF9185
S11314900E9470080C94BA090E945F0A0C94BA095D
S11314A00E94AC0938F00E94B30920F0952311F092
S11314B00C94A3090C94A90911240C94EE090E941C
S11314C0CB0970F3959FC1F3950F50E0551F629FB0
S11314D0F001729FBB27F00DB11D639FAA27F00D89
S11314E0B11DAA1F649F6627B00DA11D661F829FB0
S11314F02227B00DA11D621F739FB00DA11D621F95
S1131500839FA00D611D221F749F3327A00D611DB1
S1131510231F849F600D211D822F762F6A2F112493
S11315209F5750409AF0F1F088234AF0EE0FFF1FC6
S1131530BB1F661F771F881F91505040A9F79E3F1D
S1131540510580F00C94A3090C94EE095F3FE4F379
S1131550983ED4F3869577956795B795F795E79573
S11315609F5FC1F7FE2B880F911D9695879597F97C
S11315700895FA01EE0FFF1F309621053105A1F100
S11315806115710561F48038BFE39B0749F16894E4
S11315909038810561F08038BFEF9B0741F09923B3
S11315A04AF5FF3FE1053105210519F1E894089456
S11315B0E795D901AA2329F4AB2FBE2FF85FD0F306
S11315C010C0FF5F70F4A695E0F7F73950F019F0FA
S11315D0FF3A38F49F779F930DD00F9007FC9058F3
S11315E0089546F00C94A90960E070E080E89FE358
S11315F008954FE79F775F934F933F932F930E94F4
S1131600040A2F913F914F915F910E944C0A0C94D0
S1131610110B29F416F00C94A3090C94ED090C9405
S1131620A9090E94D309A8F39638A0F707F80F92E6
S1131630E8942BE33AEA48EB5FE70E94620A0F92D0
S11316400F920F924DB75EB70F920E94BA0BEEEA5B
S1131650F0E00E94510B4F915F91EF91FF91E5955E
S1131660EE1FFF1F49F0FE57E0684427EE0F441FAA
S1131670FA95E1F74195550B0E94840B0F9007FEF4
S11316800C94780B08959F3F31F0915020F4879586
S113169077956795B795880F911D9695879597F9D6
S11316A00895DF93CF931F930F93FF92EF92DF92EE
S11316B07B018C01689406C0DA2EEF010E945F0A58
S11316C0FE01E894A5912591359145915591A6F394
S11316D0EF010E947008FE019701A801DA9469F7EE
S11316E0DF90EF90FF900F911F91CF91DF910895BC
S11316F09B01AC0160E070E080E89FE30C94C508B6
S11317000C94A3090C94430B0E94D309D8F3992396
S1131710C9F3940F511DA3F39150504094F059F024
S1131720882332F0660F771F881F91505040C1F70D
S11317309E3F51052CF7880F911D9695879597F933
S113174008955F3FACF0983E9CF0BB278695779553
S11317506795B79508F4B1609395C1F7BB0F58F737
S113176011F460FFE8CF6F5F7F4F8F4F9F4FE3CF40
S11317700C94EE09FA01DC01AA0FBB1F9B01AC011A
S1131780BF5728F4222733274427507820C0B75165
S113179090F4AB2F0024469537952795011CA3950B
S11317A0D2F3002071F0220F331F441FB395DAF3F4
S11317B00ED00C94580861307105A0E88A07B94628
S11317C030F49B01AC016627772788279078309600
S11317D021F020833183428353830895A1E21A2E9A
S11317E0AA1BBB1BFD010DC0AA1FBB1FEE1FFF1FC1
S11317F0A217B307E407F50720F0A21BB30BE40B11
S1131800F50B661F771F881F991F1A9469F7609557
S11318107095809590959B01AC01BD01CF01089511
S1131820A29FB001B39FC001A39F700D811D11241D
S1131830911DB29F700D811D1124911D08950E9468
S1131840100CA59F900DB49F900DA49F800D911D29
S10B185011240895F894FFCF60
S11318580000010106000000408000534554204D5B
S113186841582054454D503A0057524F4E4720494D
S11318784E50555421210054656D7065726174751C
S107188872653A0047
S9030000FC
