:100000000C942A000C943C000C943C000C943C0092
:100010000C943C000C943C000C943C000C943C0070
:100020000C943C000C943C000C94BF040C94E80429
:100030000C943C000C943C000C943C000C943C0050
:100040000C943C000C943C000C943C000C943C0040
:100050000C943C0011241FBECFE5D8E0DEBFCDBF1D
:1000600020E0A0E6B0E001C01D92A436B207E1F79F
:100070000E942E020C9420050C94000080E090E079
:10008000DC0103C00196A11DB11D80392FE5920747
:1000900021E0A207B105B0F30895813031F138F0C5
:1000A000823009F440C0833009F45AC076C041114F
:1000B0000DC081E090E002C0880F991F6A95E2F7B9
:1000C00080959AB389238ABB84E00895413009F072
:1000D00066C081E090E002C0880F991F6A95E2F740
:1000E0009AB3892B8ABB84E0089541110DC081E049
:1000F00090E002C0880F991F6A95E2F7809597B348
:10010000892387BB84E00895413009F04AC081E02B
:1001100090E002C0880F991F6A95E2F797B3892B88
:1001200087BB84E0089541110DC081E090E002C0DA
:10013000880F991F6A95E2F7809594B3892384BB51
:1001400084E00895413079F581E090E002C0880FA5
:10015000991F6A95E2F794B3892B84BB84E00895D4
:1001600041110DC081E090E002C0880F991F6A958F
:10017000E2F7809591B3892381BB84E008954130F3
:10018000A1F481E090E002C0880F991F6A95E2F720
:1001900091B3892B81BB84E0089585E0089584E0C4
:1001A000089584E0089584E0089584E008958130FE
:1001B00031F138F0823009F440C0833009F45AC07C
:1001C00076C041110DC081E090E002C0880F991FF8
:1001D0006A95E2F780959BB389238BBB84E00895F1
:1001E000413009F066C081E090E002C0880F991F9D
:1001F0006A95E2F79BB3892B8BBB84E0089541118C
:100200000DC081E090E002C0880F991F6A95E2F767
:10021000809598B3892388BB84E00895413009F024
:100220004AC081E090E002C0880F991F6A95E2F70A
:1002300098B3892B88BB84E0089541110DC081E0FB
:1002400090E002C0880F991F6A95E2F7809595B3F8
:10025000892385BB84E00895413079F581E090E001
:1002600002C0880F991F6A95E2F795B3892B85BB69
:1002700084E0089541110DC081E090E002C0880F34
:10028000991F6A95E2F7809592B3892382BB84E037
:1002900008954130A1F481E090E002C0880F991FD9
:1002A0006A95E2F792B3892B82BB84E0089585E0DA
:1002B000089584E0089584E0089584E0089584E03A
:1002C0000895813079F028F08230A9F08330E1F090
:1002D00024C089B390E002C0959587956A95E2F7AE
:1002E0008170089586B390E002C0959587956A95D0
:1002F000E2F78170089583B390E002C095958795E9
:100300006A95E2F78170089580B390E002C09595F8
:1003100087956A95E2F78170089585E008958FB713
:1003200080688FBF089541E062E082E00E944D0046
:1003300041E063E082E00E944D0041E064E082E041
:100340000E944D0041E062E082E00E94D70041E05F
:1003500063E082E00E94D70041E064E082E00E9416
:10036000D70040E065E082E00E944D0040E066E09A
:1003700082E00E944D0040E067E082E00E944D0074
:1003800041E065E082E00E94D70041E066E082E063
:100390000E94D70041E067E082E00E94D700089504
:1003A00040E062E082E00E94D70041E063E082E04A
:1003B0000E94D70041E064E082E00E94D70065E03F
:1003C00082E00E946101811107C041E062E082E0A9
:1003D0000E94D70081E0089566E082E00E946101FA
:1003E000811107C041E062E082E00E94D70082E014
:1003F000089567E082E00E946101811107C041E039
:1004000062E082E00E94D70083E0089541E062E06C
:1004100082E00E94D70041E062E082E00E94D700C3
:1004200040E063E082E00E94D70041E064E082E0C7
:100430000E94D70065E082E00E946101811107C03F
:1004400041E063E082E00E94D70084E0089541E04B
:1004500063E082E00E94D70080E00895CF93DF93AD
:100460001F92CDB7DEB70E948F0184E10E94D202B5
:1004700085E10E94D2020E94930119820E94D0015C
:10048000813089F40E943E0089818F5F8983898150
:10049000853048F0198207C00E943E004CE367E1B6
:1004A00084E10E944C030E94D0018330A9F340E014
:1004B00067E187E10E94660307C00E943E004CE3AB
:1004C00067E185E10E944C030E94D0018430A9F3CA
:1004D00040E067E187E10E9466038981823081F113
:1004E00028F4882381F08130D1F056C08330C9F1DF
:1004F000843009F447C050C00E943E0040E067E1EC
:1005000087E10E9466030E94D0018230A9F3B6CF32
:100510000E943E004EE167E187E10E9466030E946F
:10052000D0018230A9F340E067E187E10E946603D1
:10053000A5CF0E943E004CE367E187E10E9466037D
:100540000E94D0018230A9F340E067E187E10E9478
:10055000660394CF0E943E004AE567E187E10E946E
:1005600066030E94D0018230A9F340E067E187E191
:100570000E94660383CF0E943E004EE168E188E15D
:100580000E9466030E94D0018230A9F340E067E137
:1005900087E10E94660372CF40E067E187E10E9435
:1005A00066036CCF843119F08531E9F038C00E94C0
:1005B000A6036AE780E00E94C00341E062E083E0B6
:1005C0000E944D0041E063E083E00E944D0040E066
:1005D00062E083E00E94D70040E063E083E00E9495
:1005E000D70081E008950E94A6036AE780E00E9498
:1005F000C00341E066E083E00E944D0041E067E017
:1006000083E00E944D0040E066E083E00E94D70056
:1006100040E067E083E00E94D70081E0089580E039
:100620000895843119F08531D9F034C0673161F40F
:1006300040E062E083E00E94D70041E063E083E0B5
:100640000E94D70081E0089541E062E083E00E94CB
:10065000D70040E063E083E00E94D70081E0089586
:10066000673161F440E066E083E00E94D70041E03A
:1006700067E083E00E94D70081E0089541E066E0F2
:1006800083E00E94D70040E067E083E00E94D7004B
:1006900081E0089580E00895CF93C42F843119F04C
:1006A000853149F010C00E94110368E78C2F0E9429
:1006B000C00381E009C00E94110369E78C2F0E94EA
:1006C000C00381E001C080E0CF910895CF93DF9314
:1006D000D62FC42F682F84E10E9411036D2F85E16E
:1006E0000E9411036AE78C2F0E94C00381E0DF9112
:1006F000CF91089541E064E083E00E94D70040E09C
:1007000065E083E00E94D700089540E064E083E064
:100710000E94D70041E065E083E00E94D700089581
:1007200040E064E083E00E94D70040E065E083E0C1
:100730000E94D700089541E064E083E00E94D70062
:1007400041E065E083E00E94D70008950E945F04C5
:100750008FEF0E94A00441E064E083E00E944D001E
:1007600041E065E083E00E944D0040E064E083E00A
:100770000E94D70040E065E083E00E94D700089522
:10078000CF93853608F097C0C62F9FEF980F93360A
:1007900008F045C09FEF899F900111243695279559
:1007A00036952795ABE7B4E10E941105969587959C
:1007B0000E94A404C93781F0CA37D1F0C83721F5A7
:1007C00060E973E082E10E94A7046AE773E081E1D7
:1007D0000E94A704C1E019C060E973E082E10E94B1
:1007E000A70465E873E081E10E94A704C1E00DC0A1
:1007F00060E973E082E10E94A7046BE973E081E1A4
:100800000E94A704C1E001C0C0E0C13009F054C09B
:1008100081E10E94780482E10E9478044DC0811138
:1008200016C06837A0F06B3790F481E10E948F0406
:1008300082E10E948F0440E064E083E00E94D700E0
:1008400040E065E083E00E94D700C1E035C0C937D1
:1008500081F0CA37D1F0C83721F541E064E083E088
:100860000E94D70040E065E083E00E94D700C1E02D
:1008700019C040E064E083E00E94D70041E065E0F9
:1008800083E00E94D700C1E00DC041E064E083E056
:100890000E94D70041E065E083E00E94D700C1E0FC
:1008A00001C0C0E0C13041F481E10E948F0482E1C7
:1008B0000E948F0401C0C0E08C2FCF91089583B7B0
:1008C0008F7B83BF83B7877F83BF83B78F7783BFD8
:1008D00083B78F7D83BF83B78F7E83BF83B78B7FC3
:1008E00083BF83B7826083BF83B78E7F83BF089542
:1008F000813119F0823149F010C088B7816088BF1A
:1009000089B7816089BF81E0089588B7826088BF18
:1009100089B7826089BF81E0089580E008958131C0
:1009200019F0823131F00AC089B78E7F89BF81E02A
:10093000089589B78D7F89BF81E0089580E008958B
:10094000809582BF81E008958CBF81E00895611594
:10095000710589F0813119F0823139F00EC0709340
:1009600061006093600081E008957093630060937C
:10097000620081E0089580E0089580E008951F926C
:100980000F920FB60F9211242F933F934F935F93C3
:100990006F937F938F939F93AF93BF93EF93FF9347
:1009A000E0916200F0916300309709F00995FF91A2
:1009B000EF91BF91AF919F918F917F916F915F91D7
:1009C0004F913F912F910F900FBE0F901F90189550
:1009D0001F920F920FB60F9211242F933F934F93B4
:1009E0005F936F937F938F939F93AF93BF93EF9397
:1009F000FF93E0916000F0916100309709F0099554
:100A0000FF91EF91BF91AF919F918F917F916F91E6
:100A10005F914F913F912F910F900FBE0F901F90BC
:100A20001895A29FB001B39FC001A39F700D811DB7
:100A30001124911DB29F700D811D1124911D0895E7
:040A4000F894FFCF58
:00000001FF
