S0180000537072696E74735F41746D65676133322E7372656306
S11300000C942A000C9447000C9447000C9447006D
S11300100C9447000C9447000C9447000C94470040
S11300200C9447000C9447000C94EA010C94C3010F
S11300300C9447000C9447000C9447000C94470020
S11300400C9447000C9447000C9447000C94470010
S11300500C94470011241FBECFE5D8E0DEBFCDBF0E
S113006010E0A0E6B0E0ECEEF3E002C005900D92E3
S1130070AA36B107D9F720E0AAE6B0E001C01D9284
S1130080A037B207E1F70E94B2000C94F4010C947B
S1130090000080916A0090916B00A0916C00B09177
S11300A06D000196A11DB11D80936A0090936B00B1
S11300B0A0936C00B0936D008F319105A105B1053B
S11300C038F140916000509161006091620070913C
S11300D063004530510561057105D1F460EF88E393
S11300E090E00E94310110926A0010926B0010920D
S11300F06C0010926D0083E090E0A0E0B0E080938B
S1130100600090936100A0936200B093630008952F
S1130110C397A105B10528F1809160009091610019
S1130120A0916200B09163000397A105B105C9F4E1
S113013060EF88E390E00E94310110926A0010920F
S11301406B0010926C0010926D0085E090E0A0E0CE
S1130150B0E08093600090936100A0936200B0933C
S11301606300089541E060EF81E00E94DB0040E01D
S113017064E081E00E94DB0084E690E00E9440019C
S113018089E490E00E943B0160EF88E390E00E94E4
S113019031016CE271E080E090E00E94940160EF34
S11301A088E390E00E94310164EF71E080E090E028
S11301B00E949401E9CF4130E1F4813059F028F0F4
S11301C0823069F0833081F046C08AB3682B6ABB01
S11301D081E0089587B3682B67BB81E0089584B3F9
S11301E0682B64BB81E0089581B3682B61BB81E017
S11301F00895411132C0813081F028F08230B9F085
S11302008330F9F02CC08AB3962F909589238ABB4A
S11302108BB3682B6BBB81E0089587B3962F9095C1
S1130220892387BB88B3682B68BB81E0089584B3B6
S1130230962F9095892384BB85B3682B65BB81E099
S1130240089581B3962F9095892381BB82B3682B3F
S113025062BB81E0089580E0089580E0089580E025
S11302600895009731F0FC0120816227608381E0CA
S1130270089580E0089590936F0080936E00089530
S1130280FC01892B09F44CC08081882319F081304A
S113029029F148C08581813039F48FB780688FBFD8
S11302A089B7826089BF03C089B78D7F89BF848184
S11302B0813049F48FB780688FBF89B7816089BF67
S11302C081E089BF03C089B78E7F89BF9281818114
S11302D0892B9381892B83BF80E1089585818130A7
S11302E039F48FB780688FBF89B7806889BF03C02E
S11302F089B78F7789BF8481813039F48FB780685B
S11303008FBF89B7806489BF03C089B78F7B89BFDA
S113031092818181892B9381892B85BD80E1089508
S113032081E1089581E108950F931F93613A26E8CE
S1130330720721E08207910500F523E822BF00E05F
S113034010E0980111C008B600FC07C00617170793
S113035028073907C0F380E113C048B7416048BF9C
S11303600F5F1F4F2F4F3F4F60177107820793078F
S113037031F008B600FEE7CFF0CF81E101C080E1A3
S11303801F910F9108951F920F920FB60F9211248F
S11303902F933F934F935F936F937F938F939F9389
S11303A0AF93BF93EF93FF93E0916E00F0916F00D2
S11303B00995FF91EF91BF91AF919F918F917F919B
S11303C06F915F914F913F912F910F900FBE0F90BE
S11303D01F9018951F920F920FB60F9211240F9031
S10F03E00FBE0F901F901895F894FFCFEB
S10D03EC05000000000003000000FB
S9030000FC
