:100000000C9443000C94F0080C9417090C943E09CE
:100010000C94050D0C942E0D0C9460000C94600053
:100020000C9460000C947D090C94B30C0C94DC0CC3
:100030000C9460000C9460000C9460000C946000C0
:100040000C9460000C9460000C9460000C946000B0
:100050000C946000B603E6030704280449046A040C
:100060008B04AC04CD04EE040E057E0B890B940BBF
:100070009F0BAA0BB50BC00BD80BE30BEE0BF90BC8
:10008000040C0F0C1A0C11241FBECFE5D8E0DEBF04
:10009000CDBF10E0A0E6B0E0E2E4FEE102C00590D2
:1000A0000D92AE37B107D9F720E0AEE7B0E001C05E
:1000B0001D92A63BB207E1F70E9462000C941F0F4D
:1000C0000C9400008FB780688FBF0E946A000E9466
:1000D000C200FDCF0E94C7010E9418070E94A6031C
:1000E0008093B50041E064E081E00E94870741E031
:1000F00065E081E00E94870741E066E081E00E94C0
:10010000870741E067E081E00E9487070895CF9369
:10011000DF9300D0CDB7DEB78091B500843121F4F4
:100120000E94A6038093B500CE0101960E942E077F
:100130008E3109F589819A818333910518F01092E7
:10014000830019C09C01245231092F30310520F45D
:1001500081E0809383000FC09C012E51310926302D
:10016000310520F482E08093830005C04E9718F497
:1001700083E080938300809183000F900F90DF9144
:10018000CF910895809182008130C9F480918100DF
:1001900081110BC00E94E00164EF71E080E090E00B
:1001A0000E949D0D81E0809381000E94E00D8D31C1
:1001B00009F0ECC0109282001092810008950E9414
:1001C00087008130C9F138F0823009F467C083308C
:1001D00009F4A0C008958091B500843129F40E94EB
:1001E000A6038093B5001AC080918000811109C0D8
:1001F00081E00E94DA02853189F481E080938000F9
:100200000DC080917F00811109C08FE690E00E94AF
:100210000206853119F481E080937F0080917E0091
:10022000823020F010927F001092800010927E00A9
:1002300080E50E94CE0108958091B500843129F4B3
:100240000E94A6038093B5001AC08091800081119E
:1002500009C081E00E94DA02853189F481E080934F
:1002600080000DC080917F00811109C08FE690E071
:100270000E940206853119F481E080937F0080910D
:100280007E00823020F010927F001092800081E08A
:1002900080937E008CE30E94CE0108958091B5008A
:1002A000843129F40E94A6038093B5001AC080917E
:1002B0008000811109C081E00E94DA02853189F451
:1002C00081E0809380000DC080917F00811109C082
:1002D00080E690E00E940206853119F481E0809367
:1002E0007F0080917E00823031F010927F0010926A
:1002F000800081E001C080E0813011F480938200B1
:1003000080918200811102C00E94DA0182E0809314
:100310007E0008958091B500843129F40E94A603DF
:100320008093B5001AC080918000811109C081E0DE
:100330000E94DA02853189F481E0809380000DC04B
:1003400080917F00811109C086E690E00E9402063C
:10035000853119F481E080937F0080917E008330A5
:1003600031F010927F001092800081E001C080E0A7
:10037000813011F48093820080918200811103C04A
:100380008CE30E94D40183E080937E00089584E191
:100390000E94260285E10E9426020895482F67E107
:1003A00087E10E94BA020895482F68E188E10E941F
:1003B000BA02089540E567E185E10E94A002089530
:1003C0000E94CE02089581E08093770008951092F4
:1003D0007700089547EE51E062E082E00E949B08BA
:1003E00088E090E00E94A60980E00895CF93DF9313
:1003F000009731F1EC0180917700813091F020F08D
:10040000833001F582E01FC00E94A80A43EE51E04C
:1004100061E082E00E949B0883E08093770082E0A5
:1004200012C083E08093770047EE51E062E082E003
:100430000E949B0861E0CE010E94180A80E003C080
:1004400081E001C081E0DF91CF910895843119F0FE
:100450008531E9F038C00E945F066AE780E00E94BB
:10046000790641E062E083E00E94870741E063E0B3
:1004700083E00E94870740E062E083E00E94110869
:1004800040E063E083E00E94110881E008950E944B
:100490005F066AE780E00E94790641E066E083E05B
:1004A0000E94870741E067E083E00E94870740E001
:1004B00066E083E00E94110840E067E083E00E946C
:1004C000110881E0089580E00895843119F08531A4
:1004D000D9F034C0673161F440E062E083E00E940B
:1004E000110841E063E083E00E94110881E0089573
:1004F00041E062E083E00E94110840E063E083E0B5
:100500000E94110881E00895673161F440E066E0DF
:1005100083E00E94110841E067E083E00E94110837
:1005200081E0089541E066E083E00E94110840E028
:1005300067E083E00E94110881E0089580E008955B
:10054000CF93C42F843119F0853149F010C00E9437
:10055000650268E78C2F0E94790681E009C00E943D
:10056000650269E78C2F0E94790681E001C080E076
:10057000CF910895CF93DF93D62FC42F682F84E1B6
:100580000E9465026D2F85E10E9465026AE78C2F4B
:100590000E94790681E0DF91CF91089540E068E103
:1005A00084E10E94A00240E068E185E10E94A0028F
:1005B00081E00895CF9390917800953009F0B7C00D
:1005C00090918800953011F410928800C82F809186
:1005D0008800823009F45EC028F4882351F081300D
:1005E00039F1A7C0833009F485C0843009F496C07E
:1005F000A0C00E949A0D8D3109F09DC041E063E0DA
:1006000080E00E94110840E061E080E00E94110853
:1006100040E062E080E00E94110861E070E080E06C
:1006200090E00E94570D81E08093880084E18CC0A7
:100630000E949A0D8D3109F080C04C2F441F442731
:10064000441F67E080E00E941108C6FB442740F980
:1006500066E080E00E941108C5FB442740F965E090
:1006600080E00E941108C4FB442740F964E080E068
:100670000E94110840E063E080E00E94110861E000
:1006800070E080E090E00E94570D82E08093880047
:1006900084E15AC00E949A0D8D3109F050C041E0AA
:1006A00063E080E00E941108C3FB442740F967E043
:1006B00080E00E941108C2FB442740F966E080E018
:1006C0000E941108C1FB442740F965E080E00E94C8
:1006D00011084C2F417064E080E00E94110861E035
:1006E00070E080E090E00E94570D83E080938800E6
:1006F00084E12AC00E949A0D8D3119F540E063E033
:1007000080E00E94110861E070E080E090E00E94CB
:10071000570D84E08093880084E116C00E949A0DF2
:100720008D3189F485E08093880085E10DC084E1F6
:100730000BC084E109C084E107C084E105C084E105
:1007400003C084E101C084E1CF910895E091890064
:10075000EB3009F46CC18E2F90E08B30910508F0DE
:1007600068C1FC01E65DFF4F0C94E70E0E94410B4F
:1007700041E061E080E00E94870741E062E080E0C4
:100780000E94870741E063E080E00E94870741E024
:1007900064E080E00E94870741E065E080E00E941D
:1007A000870741E066E080E00E94870741E067E05C
:1007B00080E00E94870762E370E080E090E00E94A2
:1007C000570D81E08093890084E108950E949A0D7D
:1007D0008D3159F483E00E94DA02843119F41092C9
:1007E000870003C081E0809387008091870081307B
:1007F00009F021C11092870082E08093890061E0B6
:1008000070E080E090E00E94570D84E108950E941E
:100810009A0D8D3159F483E00E94DA02843119F483
:100820001092870003C081E0809387008091870049
:10083000813009F002C183E08093890061E070E0BB
:1008400080E090E00E94570D1092870084E10895A7
:100850000E949A0D8D3159F483E00E94DA028431AE
:1008600019F41092870003C081E080938700809183
:100870008700813009F0E3C084E08093890061E063
:1008800070E080E090E00E94570D1092870084E1B4
:1008900008950E949A0D8D3159F482E00E94DA0287
:1008A000843119F41092870003C081E0809387009F
:1008B00080918700813009F0C4C085E08093890071
:1008C00061E070E080E090E00E94570D1092870098
:1008D00084E108950E949A0D8D3159F488E20E94B6
:1008E000DA02843119F41092870003C081E080930A
:1008F000870080918700813009F0A5C086E0809351
:10090000890061E070E080E090E00E94570D109255
:10091000870084E108950E949A0D8D3159F488E092
:100920000E94DA02843119F41092870003C081E03A
:100930008093870080918700813009F086C087E02E
:100940008093890061E070E080E090E00E94570DA4
:100950001092870084E108950E949A0D8D3159F418
:1009600081E00E94DA02843119F41092870003C0FA
:1009700081E08093870080918700813009F067C013
:1009800088E08093890061E070E080E090E00E9460
:10099000570D1092870084E108950E949A0D8D31C1
:1009A00059F486E00E94DA02843119F4109287002B
:1009B00003C081E08093870080918700813009F037
:1009C00048C089E08093890061E070E080E090E0B9
:1009D0000E94570D1092870084E108950E949A0D9D
:1009E0008D3159F48CE00E94DA02843119F41092AE
:1009F000870003C081E08093870080918700813069
:100A000051F58AE08093890061E070E080E090E039
:100A10000E94570D1092870084E108950E949A0D5C
:100A20008D31D9F48BE08093890084E1089585E1CC
:100A3000089584E1089584E1089584E1089584E1AE
:100A4000089584E1089584E1089584E1089584E19E
:100A5000089584E1089584E1089584E10895CF9391
:100A600090918800953009F0BCC0909189009B302E
:100A700009F0B9C090917800953011F41092780087
:100A8000C82F80917800823009F45EC028F4882352
:100A900051F0813039F1A9C0833009F485C0843028
:100AA00009F496C0A2C00E949A0D8D3109F09FC032
:100AB00041E063E080E00E94110841E061E080E0F5
:100AC0000E94110840E062E080E00E94110861E0AD
:100AD00070E080E090E00E94570D81E08093780004
:100AE00084E18EC00E949A0D8D3109F082C04C2F96
:100AF000441F4427441F67E080E00E941108C6FBA2
:100B0000442740F966E080E00E941108C5FB4427B5
:100B100040F965E080E00E941108C4FB442740F9D9
:100B200064E080E00E94110840E063E080E00E9401
:100B3000110861E070E080E090E00E94570D82E0D3
:100B40008093780084E15CC00E949A0D8D3109F099
:100B500052C041E063E080E00E941108C3FB4427DB
:100B600040F967E080E00E941108C2FB442740F989
:100B700066E080E00E941108C1FB442740F965E06F
:100B800080E00E9411084C2F417064E080E00E94D8
:100B9000110861E070E080E090E00E94570D83E072
:100BA0008093780084E12CC00E949A0D8D3129F544
:100BB00040E063E080E00E94110861E070E080E0C6
:100BC00090E00E94570D84E08093780084E118C083
:100BD0000E949A0D8D3199F485E08093780085E12B
:100BE0000FC084E10DC084E10BC084E109C084E141
:100BF00007C084E105C084E103C084E101C084E151
:100C0000CF9108952091850030918600232B31F4F7
:100C1000009721F090938600809385008091850055
:100C2000909186000097D9F020918400FC01E20F9A
:100C3000F11D8081882359F00E942F05853189F4A8
:100C4000809184008F5F8093840084E108951092E6
:100C50008600109285001092840085E1089584E159
:100C6000089584E1089541E064E083E00E94110862
:100C700040E065E083E00E941108089540E064E0F0
:100C800083E00E94110841E065E083E00E941108C2
:100C9000089540E064E083E00E94110840E065E0D0
:100CA00083E00E941108089541E064E083E00E941F
:100CB000110841E065E083E00E94110808950E9458
:100CC0005A0B8FEF0E94790C41E064E083E00E94B0
:100CD000870741E065E083E00E94870740E064E029
:100CE00083E00E94110840E065E083E00E94110863
:100CF0000895CF93853608F097C0C62F9FEF980FC1
:100D0000933608F045C09FEF899F900111243695D6
:100D1000279536952795ABE7B4E10E94ED0E9695A1
:100D200087950E94800CC93781F0CA37D1F0C83747
:100D300021F569E476E080E20E949B0C63E376E0B3
:100D40008FE10E949B0CC1E019C069E476E080E26B
:100D50000E949B0C6EE376E08FE10E949B0CC1E049
:100D60000DC069E476E080E20E949B0C64E576E0C9
:100D70008FE10E949B0CC1E001C0C0E0C13009F0CE
:100D800054C08FE10E94270C80E20E94270C4DC0C6
:100D9000811116C06837A0F06B3790F48FE10E9484
:100DA000540C80E20E94540C40E064E083E00E9416
:100DB000110840E065E083E00E941108C1E035C001
:100DC000C93781F0CA37D1F0C83721F541E064E076
:100DD00083E00E94110840E065E083E00E94110872
:100DE000C1E019C040E064E083E00E94110841E0E6
:100DF00065E083E00E941108C1E00DC041E064E0BD
:100E000083E00E94110841E065E083E00E94110840
:100E1000C1E001C0C0E0C13041F48FE10E94540C38
:100E200080E20E94540C01C0C0E08C2FCF91089545
:100E300088E090E00E94A6090E94EA0141E061E09A
:100E400081E00E94870740E062E081E00E9487071E
:100E500040E061E081E00E94110808950F931F9324
:100E6000CF93DF9300D000D0CDB7DEB7009709F461
:100E700040C08C0180918A00811113C041E061E083
:100E800081E00E9411088CE090E00E94030A40E09B
:100E900061E081E00E94110881E080938A008FE187
:100EA0002DC08130E1F4CE0101960E94F60181113E
:100EB00022C082E080938A0029813A814B815C8143
:100EC000A0EDB4E80E94FC0E20E834E84EE150E0CA
:100ED0000E94C50EF801318320838EE10FC08CE3A0
:100EE00090E00E943E0A811108C010928A008FE1B2
:100EF00005C08FE103C08FE101C08FE10F900F901B
:100F00000F900F90DF91CF911F910F910895813035
:100F100031F138F0823009F440C0833009F45AC00E
:100F200076C041110DC081E090E002C0880F991F8A
:100F30006A95E2F780959AB389238ABB84E0089585
:100F4000413009F066C081E090E002C0880F991F2F
:100F50006A95E2F79AB3892B8ABB84E00895411120
:100F60000DC081E090E002C0880F991F6A95E2F7FA
:100F7000809597B3892387BB84E00895413009F0B9
:100F80004AC081E090E002C0880F991F6A95E2F79D
:100F900097B3892B87BB84E0089541110DC081E090
:100FA00090E002C0880F991F6A95E2F7809594B38C
:100FB000892384BB84E00895413079F581E090E095
:100FC00002C0880F991F6A95E2F794B3892B84BBFE
:100FD00084E0089541110DC081E090E002C0880FC7
:100FE000991F6A95E2F7809591B3892381BB84E0CC
:100FF00008954130A1F481E090E002C0880F991F6C
:101000006A95E2F791B3892B81BB84E0089585E06E
:10101000089584E0089584E0089584E0089584E0CC
:101020000895813031F138F0823009F440C08330C6
:1010300009F45AC076C041110DC081E090E002C0B1
:10104000880F991F6A95E2F780959BB389238BBB24
:1010500084E00895413009F066C081E090E002C06C
:10106000880F991F6A95E2F79BB3892B8BBB84E0AD
:10107000089541110DC081E090E002C0880F991FD2
:101080006A95E2F7809598B3892388BB84E0089538
:10109000413009F04AC081E090E002C0880F991FFA
:1010A0006A95E2F798B3892B88BB84E008954111D3
:1010B0000DC081E090E002C0880F991F6A95E2F7A9
:1010C000809595B3892385BB84E00895413079F5F7
:1010D00081E090E002C0880F991F6A95E2F795B30E
:1010E000892B85BB84E0089541110DC081E090E01B
:1010F00002C0880F991F6A95E2F7809592B3892301
:1011000082BB84E008954130A1F481E090E002C008
:10111000880F991F6A95E2F792B3892B82BB84E00E
:10112000089585E0089584E0089584E0089584E0BA
:10113000089584E008954115510509F44DC08111C9
:101140001AC05093900040938F008BB780648BBF80
:10115000623029F485B7836085BF80E008956130EF
:1011600029F485B7826085BF80E0089585B78160E6
:1011700085BF80E008958130D1F450938E00409374
:101180008D008BB780688BBF623029F485B78C6087
:1011900085BF80E00895613029F485B7886085BFF8
:1011A00080E0089585B7846085BF80E0089582302F
:1011B000A9F450938C0040938B008BB780628BBF57
:1011C000623029F484B7806484BF80E0089584B7D6
:1011D0008F7B84BF80E0089581E0089581E00895C9
:1011E0001F920F920FB60F9211242F933F934F939C
:1011F0005F936F937F938F939F93AF93BF93EF937F
:10120000FF93E0918F00F09190000995FF91EF918D
:10121000BF91AF919F918F917F916F915F914F910E
:101220003F912F910F900FBE0F901F9018951F9216
:101230000F920FB60F9211242F933F934F935F930A
:101240006F937F938F939F93AF93BF93EF93FF938E
:10125000E0918D00F0918E000995FF91EF91BF9183
:10126000AF919F918F917F916F915F914F913F913E
:101270002F910F900FBE0F901F9018951F920F92F5
:101280000FB60F9211242F933F934F935F936F9359
:101290007F938F939F93AF93BF93EF93FF93E091CF
:1012A0008B00F0918C000995FF91EF91BF91AF9168
:1012B0009F918F917F916F915F914F913F912F916E
:1012C0000F900FBE0F901F9018958FEF8DBD85E08A
:1012D0008CBD8091980090919900A0919A00B09156
:1012E0009B000196A11DB11D8093980090939900D9
:1012F000A0939A00B0939B0008951F920F920FB68F
:101300000F9211242F933F934F935F936F937F938B
:101310008F939F93AF93BF93EF93FF93E0919600CA
:10132000F0919700309709F00995FF91EF91BF91E7
:10133000AF919F918F917F916F915F914F913F916D
:101340002F910F900FBE0F901F901895813091052F
:1013500039F48EB581608EBD81E080939C003CC0E5
:101360008830910539F48EB582608EBD81E080931E
:101370009C0032C08032910539F48EB583608EBDF9
:1013800081E080939C0028C08034910539F48EB5AB
:1013900084608EBD81E080939C001EC080389105E2
:1013A00039F48EB585608EBD81E080939C0014C0B9
:1013B000811521E0920739F48EB586608EBD81E0FB
:1013C00080939C0009C08430944031F48EB58760CE
:1013D0008EBD81E080939C0080919C0008951EBC8E
:1013E000109298001092990010929A0010929B000F
:1013F000089589B7846089BF81E0089589B78B7F9C
:1014000089BF80E008958B5F91099BBD8ABD8FEFF6
:101410008DBD85E08CBD88B7806188BF88E090E095
:101420000E94A60908B604FEFDCF0E94EF090895A8
:10143000CF93FC01C62F20919800309199004091E4
:101440009A0050919B00AAEFB0E00E94FC0E10821F
:10145000118212821382C13051F4DC01CB018083EE
:101460009183A283B3830E94FE090E94EF09CF916A
:10147000089590939700809396000895CF93AC01C0
:1014800090919500911107C08FEF8DBD85E08CBDC7
:1014900081E080939500909179009330B9F588EEC2
:1014A00093E0489F9001499F300D589F300D1124C3
:1014B00036952795A3E1B3E80E94ED0E0024880F2E
:1014C000991F001C880F991F001C892F902DBC01AB
:1014D00080E090E00E94120E0E94780E0E94E30DC0
:1014E0006093910070939200809393009093940086
:1014F00085E699E00E94390A0E94F90988E090E0A7
:101500000E94A60982E0809379001FC04091980054
:101510005091990060919A0070919B008091910088
:1015200090919200A0919300B091940048175907B0
:101530006A077B0749F40E94EF091092950083E047
:1015400080937900C0E001C0C1E08C2FCF91089555
:101550008FEF8DBD85E08CBD85E699E00E94390A4C
:101560000E94F90988E090E00E94A6090895FF9280
:101570000F931F93CF93DF9380917C008B3181F584
:10158000F090A5000091A6001091A700D091A800AE
:10159000C091A900B091AA00F091AB00E091AC001D
:1015A0002F2D302F412F5D2F6C2F7B2F8F2F9E2FB4
:1015B000A0E00E94130FA1F0AFEF0E94070F20934D
:1015C000A5003093A6004093A7005093A800609315
:1015D000A9007093AA008093AB009093AC0006C062
:1015E0008AE180937C008DE180937D00DF91CF9133
:1015F0001F910F91FF900895FF920F931F93CF9328
:10160000DF9380917A00823281F5F0909D00009105
:101610009E0010919F00D091A000C091A100B091B8
:10162000A200F091A300E091A4002F2D302F412FB4
:101630005D2F6C2F7B2F8F2F9E2FA0E00E94130F0A
:10164000A1F0AFEF0E94070F20939D0030939E0002
:1016500040939F005093A0006093A1007093A2005C
:101660008093A3009093A40006C081E280937A0047
:101670008DE180937B00DF91CF911F910F91FF90BF
:10168000089583B78F7B83BF83B7886083BF83B799
:101690008F7783BF83B78F7D83BF83B78F7E83BFF1
:1016A00083B78B7F83BF83B7826083BF83B78E7F0F
:1016B00083BF089585B58F7B85BD85B5877F85BD43
:1016C00085B58F7785BD85B58F7D85BD85B58F7EC9
:1016D00085BD85B58B7F85BD85B5826085BD85B5AA
:1016E0008E7F85BD089590E0FC013997E730F105C4
:1016F00008F051C0EB5CFF4F0C94E70E83B78B7F73
:1017000083BF83B78D7F83BF83B7816083BF81E051
:10171000089583B78B7F83BF83B7826083BF83B70E
:101720008E7F83BF81E0089583B78B7F83BF83B7AC
:10173000826083BF83B7816083BF81E0089583B7F0
:10174000846083BF83B78D7F83BF83B78E7F83BF62
:1017500081E0089583B7846083BF83B78D7F83BFA3
:1017600083B7816083BF81E0089583B7846083BFBE
:1017700083B7826083BF83B78E7F83BF81E0089584
:1017800083B7846083BF83B7826083BF83B7816080
:1017900083BF81E0089580E0089590E0FC013997CF
:1017A000E730F10508F051C0E45CFF4F0C94E70E00
:1017B00085B58B7F85BD85B58D7F85BD85B5816000
:1017C00085BD81E0089585B58B7F85BD85B5826037
:1017D00085BD85B58E7F85BD81E0089585B58B7FFC
:1017E00085BD85B5826085BD85B5816085BD81E09B
:1017F000089585B5846085BD85B58D7F85BD85B52A
:101800008E7F85BD81E0089585B5846085BD85B5F1
:101810008D7F85BD85B5816085BD81E0089585B5E5
:10182000846085BD85B5826085BD85B58E7F85BDAB
:1018300081E0089585B5846085BD85B5826085BDEC
:1018400085B5816085BD81E0089580E00895893186
:1018500089F018F4883131F025C08F3199F0803249
:10186000C9F020C088B7816088BF89B7816089BF0F
:1018700081E0089588B7826088BF89B7826089BF98
:1018800081E0089588B7806488BF89B7806489BF84
:1018900081E0089588B7806888BF89B7806889BF6C
:1018A00081E0089580E00895893171F018F488315D
:1018B00031F019C08F3169F0803281F014C089B7DE
:1018C0008E7F89BF81E0089589B78D7F89BF81E0D0
:1018D000089589B78F7B89BF81E0089589B78F7795
:1018E00089BF81E0089580E00895809582BF81E0FE
:1018F0000895809584BD81E008958CBF81E00895AE
:1019000083BD81E008956115710589F0883119F072
:10191000893139F00EC07093B2006093B10081E05C
:1019200008957093B4006093B30081E0089580E05F
:10193000089580E008956115710589F08F3119F0DF
:10194000803239F00EC07093AE006093AD0081E03C
:1019500008957093B0006093AF0081E0089580E037
:10196000089580E008951F920F920FB60F921124F0
:101970002F933F934F935F936F937F938F939F9397
:10198000AF93BF93EF93FF93E091B300F091B40056
:10199000309709F00995FF91EF91BF91AF919F9119
:1019A0008F917F916F915F914F913F912F910F9008
:1019B0000FBE0F901F9018951F920F920FB60F92A7
:1019C00011242F933F934F935F936F937F938F9344
:1019D0009F93AF93BF93EF93FF93E091B100F0918A
:1019E000B200309709F00995FF91EF91BF91AF9147
:1019F0009F918F917F916F915F914F913F912F9127
:101A00000F900FBE0F901F9018951F920F920FB658
:101A10000F9211242F933F934F935F936F937F9374
:101A20008F939F93AF93BF93EF93FF93E091AF009A
:101A3000F091B000309709F00995FF91EF91BF91B7
:101A4000AF919F918F917F916F915F914F913F9156
:101A50002F910F900FBE0F901F9018951F920F920D
:101A60000FB60F9211242F933F934F935F936F9371
:101A70007F938F939F93AF93BF93EF93FF93E091E7
:101A8000AD00F091AE00309709F00995FF91EF910C
:101A9000BF91AF919F918F917F916F915F914F9186
:101AA0003F912F910F900FBE0F901F901895CF93DD
:101AB000DF9320917C002A31B9F520917D002E31F1
:101AC000A9F1DC01CB01880F991FAA1FBB1F880F4A
:101AD000991FAA1FBB1F8093A5009093A600A093F7
:101AE000A700B093A8001092A9001092AA0010922B
:101AF000AB001092AC008AEF0E947D0C8FEF0E9429
:101B0000750C8BE180937C0089E10E94270C67EBC8
:101B10007AE089E10E94830C8AE00E94730B8EE1D7
:101B200080937D008AE103C08BE101C08BE1DF91EE
:101B3000CF91089580917D000895CF93DF932091F8
:101B40007A002132B9F520917B002E31A9F1DC0118
:101B5000CB01880F991FAA1FBB1F880F991FAA1FAF
:101B6000BB1F80939D0090939E00A0939F00B09315
:101B7000A0001092A1001092A2001092A300109257
:101B8000A4008AEF0E94800C80E00E94790C82E21F
:101B900080937A0080E20E94270C6CEF7AE080E26A
:101BA0000E949B0C8AE00E94CD0B8EE180937B000B
:101BB00081E203C082E201C082E2DF91CF91089509
:101BC00080917B0008950E94570E88F09F5798F0EF
:101BD000B92F9927B751B0F0E1F0660F771F881F32
:101BE000991F1AF0BA95C9F714C0B13091F00E944C
:101BF000710EB1E008950C94710E672F782F88272D
:101C0000B85F39F0B93FCCF3869577956795B39572
:101C1000D9F73EF490958095709561957F4F8F4FE1
:101C20009F4F0895E89409C097FB3EF490958095E6
:101C3000709561957F4F8F4F9F4F9923A9F0F92F92
:101C400096E9BB279395F695879577956795B79510
:101C5000F111F8CFFAF4BB0F11F460FF1BC06F5FF6
:101C60007F4F8F4F9F4F16C0882311F096E911C008
:101C7000772321F09EE8872F762F05C0662371F029
:101C800096E8862F70E060E02AF09A95660F771F3D
:101C9000881FDAF7880F9695879597F9089557FD6D
:101CA0009058440F551F59F05F3F71F04795880FCA
:101CB00097FB991F61F09F3F79F087950895121661
:101CC00013061406551FF2CF4695F1DF08C016160D
:101CD00017061806991FF1CF8695710561050894BE
:101CE0000895E894BB2766277727CB0197F90895D5
:101CF0000E94570EE8F09E37E8F09639B8F49E3807
:101D000048F4672F782F8827985FF9CF86957795C5
:101D1000679593959539D0F3B62FB1706B0F711D00
:101D2000811D20F487957795679593950C949C0E6B
:101D30000C94B70E0C94720E882371F4772321F063
:101D40009850872B762F07C0662311F499270DC072
:101D50009051862B70E060E02AF09A95660F771F0D
:101D6000881FDAF7880F9695879597F908959F3F12
:101D700031F0915020F4879577956795B795880F46
:101D8000911D9695879597F90895A1E21A2EAA1BA1
:101D9000BB1BFD010DC0AA1FBB1FEE1FFF1FA2171B
:101DA000B307E407F50720F0A21BB30BE40BF50B18
:101DB000661F771F881F991F1A9469F760957095A1
:101DC000809590959B01AC01BD01CF010895EE0F68
:101DD000FF1F0590F491E02D0994A29FB001B39FDD
:101DE000C001A39F700D811D1124911DB29F700D24
:101DF000811D1124911D08950E94ED0EA59F900D47
:101E0000B49F900DA49F800D911D1124089500246E
:101E1000A7FD00942A0F301D401D501D601D701D30
:101E2000801D901D08950024A7FD00942A173005F9
:101E30004005500560057005800590050895F894EB
:021E4000FFCFD2
:101E42005249474854004241434B5741524400468D
:0E1E52004F525741524400030503211C1A1C35
:00000001FF
